:020000040800F2
:1000000000000320C1020008690C00086D0C000804
:10001000710C0008750C0008790C00080000000045
:10002000000000000000000000000000911A00081D
:100030007D0C000800000000311B0008810C000846
:10004000C5030008C5030008C5030008C503000870
:10005000C5030008C5030008C5030008C503000860
:10006000C5030008C5030008C5030008C503000850
:10007000890C0008C5030008C5030008C503000873
:10008000990C0008C5030008C5030008A90C000866
:10009000B90C0008C5030008C5030008C503000823
:1000A000C5030008C5030008C5030008C503000810
:1000B000C5030008C5030008C5030008C503000800
:1000C000C5030008C5030008C5030008C5030008F0
:1000D000C5030008C90C0008D90C0008E90C000889
:1000E000C5030008C5030008C5030008C5030008D0
:1000F000C5030008C5030008C5030008C5030008C0
:10010000C5030008C5030008C5030008C5030008AF
:10011000C5030008C5030008F90C0008C503000862
:10012000C5030008090D0008190D0008C5030008E3
:10013000C5030008C5030008C5030008290D000811
:10014000390D0008C5030008C5030008C5030008F1
:10015000C5030008C5030008C5030008490D0008D1
:10016000C5030008C5030008C5030008C50300084F
:10017000C5030008C5030008C5030008000000000F
:10018000C5030008C5030008C5030008C50300082F
:10019000C5030008C5030008C5030008C50300081F
:1001A0000000000000000000C503000800B583B097
:1001B00000F092F9304B314A1360314A1360314BF1
:1001C000314A03E011681960043304322F498B422D
:1001D000F8D32A4B1A682E4B9A4204D1284B1A683E
:1001E0002C4B9A4200D0FEE7234B2B4A13602B4A3C
:1001F00013602B4B02E000221A600433294A934219
:10020000F9D3254B1B6813B9244B1B6803B1FEE7D8
:1002100000F074F9694601A800F056F9224C234B0E
:100220001C1BA410002504E01F4B53F825309847F1
:100230000135AC42F8DC1E4C1E4B1C1BA4100025E3
:1002400004E01B4B53F8253098470135AC42F8DCED
:100250000099019800F022FC0546174C174B1C1B17
:10026000A41004E0013C144B53F824309847002CB0
:10027000F8DC284600F004F9BABADECA0000002013
:10028000C009002000000020A0A60008C40900202A
:100290007856341232547698C4090020484E002013
:1002A000C40900204C4E0020F0030008F0030008B1
:1002B000F0030008F0030008F0030008F003000852
:1002C00008B5FFF773FF00BF00BEFEE71EF0040F86
:1002D0000CBFEFF30880EFF309807146364A1047F0
:1002E0002DE9F04182B004468846084B5E6B9F6B57
:1002F0009D6A074800F084F8CDF800803B463246FE
:100300002946204600F0FEF800BEFEE700ED00E0C2
:1003100044A1000800BEFEE71EF0040F0CBFEFF37F
:100320000880EFF309807146244A10472DE9F04117
:1003300082B004468846084B5E6B9F6B9D6A0748F7
:1003400000F05EF8CDF800803B4632462946204654
:1003500000F0D8F800BEFEE700ED00E054A1000870
:100360001EF0040F0CBFEFF30880EFF30980714615
:10037000134A10472DE9F04182B004468846084BE5
:100380005E6B9F6B9D6A074800F03AF8CDF80080DD
:100390003B4632462946204600F0B4F800BEFEE750
:1003A00000ED00E060A1000800BEFEE700BEFEE731
:1003B00000BEFEE770470000E10200082D030008C0
:0803C0007503000800BEFEE712
:1003C800A0A6000800000020C4090020A0A600087C
:1003D8000000001000000010C40900204C4E00204E
:0803E8000000001000000010ED
:100400000FB400B583B004AB53F8042B01938021E3
:10041000064807F0B1FC002803DD0146034800F060
:100420002BF803B05DF804EB04B07047C809002056
:1004300010B400221AE04FF06043D3F8803E13F06E
:10044000010F06D04FF06043D3F8003E13F0010FC8
:1004500001D110460DE04FF060431B68002BFAD02D
:1004600004784FF060431C70013201308A42E2D3BD
:1004700008465DF8044B704708B5FFF7D9FF08BD83
:10048000FEE700BF08B50D4B1B6813B90C4A0B4BB8
:100490001A600A4B1A68C31C23F00303134409496A
:1004A0008B4206D905F080FC0C2303604FF0FF302F
:1004B00008BD02490B60104608BD00BF480A002075
:1004C0004C4E002000FC022001230360014B0B6016
:1004D000704700BF0400002008B500F03DFC054B4C
:1004E000054A9A60D3F8882042F47002C3F8882045
:1004F00008BD00BF00ED00E00000000808B500F0F6
:1005000051FC08BDF8B504460D4617461E46264860
:10051000FFF776FF21682548FFF772FF61682448DE
:10052000FFF76EFFA1682348FFF76AFFE1682248E2
:10053000FFF766FF21692148FFF762FF61692048E4
:10054000FFF75EFFA1691F48FFF75AFFE1691E48E8
:10055000FFF756FF1D48FFF753FF29461C48FFF7DA
:100560004FFF1C4CE16A1C48FFF74AFF216B1B48F8
:10057000FFF746FFE16B1A48FFF742FF15F0800FC7
:1005800003D039461748FFF73BFF15F4004F03D05F
:1005900031461548FFF734FF1448FFF731FF06993D
:1005A0001348FFF72DFFF8BD28A0000838A0000869
:1005B00048A0000858A0000868A0000878A000081B
:1005C00088A0000898A00008A8A00008B8A000080B
:1005D000C4A0000800ED00E0D4A00008E4A00008DA
:1005E000F4A0000804A1000814A1000824A1000838
:1005F0002CA1000808B50E480E4B0360052343608C
:1006000000238360C3604FF4003202614FF4800224
:10061000426183610122C261036243628362C362F9
:1006200002F078F818B15021034800F0CBF908BD6A
:10063000904800200064004070A1000808B50F48F1
:100640000F4B036005234360002383604FF040722B
:10065000C2604FF4003202614FF480024261836154
:100660000122C261036243628362C36202F052F8F4
:1006700018B16621034800F0A5F908BD4C480020D8
:100680000068004070A1000810B588B003683A4ABD
:1006900093422FD1394A136801331360012B0BD1D8
:1006A00000230093364B1A6C42F000721A641B6CE4
:1006B00003F000730093009B032303930222049230
:1006C0000024059406930923079303A92D4802F0FB
:1006D00083FE22460521132002F050FB132002F076
:1006E0008FFB22460521142002F048FB142002F063
:1006F00087FB3FE0244A93423CD100230193204BE7
:100700001A6C42F080621A641B6C03F080630193E0
:10071000019B1A4A136801331360012B0BD100238C
:100720000293174B1A6C42F000721A641B6C03F0B0
:1007300000730293029B4FF44053039302230493EC
:1007400000240594032306930923079303A90F4864
:1007500002F042FE224621463F2002F00FFB3F20DE
:1007600002F04EFB22462146402002F007FB4020CB
:1007700002F046FB08B010BD00640040500A0020A3
:1007800000380240000C02400068004000040240B3
:1007900010B582B0002400941A4B1A6B42F4800208
:1007A0001A631A6B02F480020092009A01941A6B89
:1007B00042F400121A631B6B03F400130193019BB4
:1007C000224605210C2002F0D9FA0C2002F018FB79
:1007D00022460521102002F0D1FA102002F010FB71
:1007E00022460521392002F0C9FA392002F008FB1F
:1007F000224605213A2002F0C1FA3A2002F000FB1D
:1008000002B010BD0038024008B5012001F08AFA9C
:10081000FBE700BF30B587B001AC064D0FCD0FC46C
:100820002B682360002101A801F062FA024B1860D6
:1008300007B030BD80A10008D44800202DE9F04168
:100840008EB000240194524B1A6B42F010021A63CE
:100850001A6B02F010020192019A02941A6B42F094
:1008600002021A631A6B02F002020292029A0394C5
:100870001A6B42F040021A631A6B02F040020392B4
:10088000039A04941A6B42F008021A631A6B02F07E
:1008900008020492049A05941A6B42F001021A634A
:1008A0001A6B02F001020592059A06941A6B42F443
:1008B00080721A631A6B02F480720692069A079489
:1008C0001A6B42F080021A631A6B02F080020792E0
:1008D000079A08941A6B42F020021A631B6B03F00C
:1008E00020030893089B2B4E22468821304602F0B5
:1008F00027FF01220421304602F022FFDFF8AC80FE
:1009000022464FF40051404602F01AFF224F224681
:1009100044F24001384602F013FF8C23099301256D
:100920000A950B940C9409A9304602F055FD022358
:1009300009931A4B0A930B9509A9304602F04CFD16
:100940004FF4005309930A950B940C9409A940465F
:1009500002F042FD802309930A940B9409A91048E0
:1009600002F03AFD44F2400309930A950B940C946B
:1009700009A9384602F030FD0D230993094B0A936B
:100980000B9409A9084802F027FD0EB0BDE8F081DC
:100990000038024000100240001402400000211004
:1009A000000C02400000111000000240001802403C
:1009B00008B50268024B9A4201D101F09DFE08BDC4
:1009C00000100040FEE700BF00B595B00021019186
:1009D0002E4B1A6C42F080521A641B6C03F0805349
:1009E0000193019B02912A4B1A6842F440421A601B
:1009F0001B6803F440430293029B012308934FF4C6
:100A00008033099302230E934FF480020F92062243
:100A10001092B422119212930423139308A802F0A7
:100A2000FBFE18B1AE211B48FFF7CCFF02F0A2FE7F
:100A300018B1B5211748FFF7C5FF0F230393022311
:100A40000493002305934FF4A05306934FF480536F
:100A50000793052103A803F08DF918B1C3210D48B0
:100A6000FFF7B0FF03F0B8FA0B4BA3FB003080098F
:100A700002F0DCF9042002F0EFF900220F214FF020
:100A8000FF3002F07BF915B05DF804FB003802403E
:100A900000700040A0A10008D34D621008B501F01D
:100AA00011FEFFF791FFFFF7C9FEFFF771FEFFF799
:100AB000A1FD00F0DBFC00F01BF800F015FD00F0DC
:100AC00031FDFFF7BBFD00F0BFFB00F0CBFA00F0FB
:100AD0001FFB00F061FB00F015FC00F087FC00F04C
:100AE000E5FCFFF797FE01F0FDF8FEE7704700BF59
:100AF00008B50E480E4B03604FF482734360002329
:100B00008360C360036143614FF4007282613022ED
:100B1000C2610362436283620A23C36203F0B0FAD4
:100B200018B14F210348FFF74DFF08BDD8480020FA
:100B300000500140B0A100080268124B9A421FD138
:100B400000B587B00021009103F568435A6C42F468
:100B500080125A645B6C03F480130093009B4FF483
:100B600060730193022302930391032304930523EB
:100B7000059301A9044802F02FFC07B05DF804FBBF
:100B8000704700BF005001400014024008B5032028
:100B900002F0D6F8002211466FF00B0002F0EEF8DA
:100BA000002211466FF00A0002F0E8F80022114618
:100BB0006FF0090002F0E2F8002211466FF0040025
:100BC00002F0DCF8002211466FF0030002F0D6F8C4
:100BD00000220F216FF0010002F0D0F800220F2157
:100BE0004FF0FF3002F0CAF808BD00BF10B588B062
:100BF00000220146362002F0C1F8362002F000F94A
:100C000000240194144B1A6C42F010021A641B6CFD
:100C100003F010030193019B02A903A803F012FA49
:100C200003F0E0F940000D4BA3FB00239B0C013BBC
:100C30000B480C4A026040F2E732C2604360046134
:100C4000846003F055FD18B9054803F0B3FB00E0DC
:100C5000012008B010BD00BF0038024083DE1B43F6
:100C60003049002000100040704700BFFEE700BF81
:100C7000FEE700BFFEE700BFFEE700BF704700BF12
:100C800008B501F057F808BD08B5024802F0B4FAFB
:100C900008BD00BF944B002008B5024802F0ACFA32
:100CA00008BD00BFD44A002008B5024801F04EFF3D
:100CB00008BD00BF9048002008B5024801F046FF7B
:100CC00008BD00BF9048002008B5024804F084FB2E
:100CD00008BD00BF944C002008B5024804F07CFB1E
:100CE00008BD00BF144D002008B5024804F074FB95
:100CF00008BD00BFF44B002008B5024803F0B0FB6C
:100D000008BD00BF3049002008B5024802F074FA5F
:100D100008BD00BF344B002008B5024802F06CFA51
:100D200008BD00BF344C002008B5024801F00EFF9A
:100D300008BD00BF4C48002008B5024801F006FF7E
:100D400008BD00BF4C48002008B5024804F044FB31
:100D500008BD00BFD44C00200F49D1F8883043F4BF
:100D60007003C1F888300D4B1A6842F001021A6016
:100D7000002098601A6822F0847222F480321A608F
:100D8000074A5A601A6822F480221A60D8604FF02D
:100D900000638B60704700BF00ED00E00038024048
:100DA00010300024224B9B6803F00C03042B07D067
:100DB000082B09D0002B2DD11E4A1F4B1A602CE0A6
:100DC0001E4A1D4B1A6028E0194B5A685B6803F0F5
:100DD0003F0312F4800F09D0184AB2FBF3F2144B10
:100DE0005B68C3F3881303FB02F208E0114AB2FB0D
:100DF000F3F30F4A5168C1F3881101FB03F20C4B66
:100E00005B68C3F3014301335B00B2FBF3F30A4AAF
:100E1000136002E0074A084B1A60054B9B68C3F356
:100E20000313074AD15C044A1368CB401360704730
:100E3000003802400024F4000C000020001BB70022
:100E4000C0A1000886B00368B3F1804F0CD1002325
:100E500000932E4B1A6C42F001021A641B6C03F0D3
:100E600001030093009B4EE0294A93420CD10023DA
:100E70000193264B1A6C42F002021A641B6C03F0B9
:100E800002030193019B3EE0224A93420CD10023CE
:100E900002931E4B1A6C42F004021A641B6C03F09E
:100EA00004030293029B2EE01B4A93420CD10023C1
:100EB0000393164B1A6C42F008021A641B6C03F081
:100EC00008030393039B1EE0144A93420CD10023B2
:100ED00004930E4B5A6C42F002025A645B6C03F0AE
:100EE00002030493049B0EE00D4A93420BD10023AE
:100EF0000593064B1A6C42F040021A641B6C03F017
:100F000040030593059B06B0704700BF00380240C0
:100F10000004004000080040000C004000040140B4
:100F20000018004070B586B00368B3F1804F19D146
:100F300040F6084301930226029600240394049489
:100F40000125059501A93D4802F046FA4FF40043FA
:100F50000193029603940494059501A9384802F080
:100F60003BFA68E0374A93420CD1302301930223C5
:100F70000293002203920492059301A92F4802F0E4
:100F80002BFA58E0304A934218D14FF44073019342
:100F900002240294002503950495059401A927488D
:100FA00002F01AFA4FF4405301930294039504950A
:100FB000059401A9254802F00FFA3CE0244A934227
:100FC00017D101230193022402940025039504956F
:100FD000059401A91F4802F0FFF94FF4E053019373
:100FE000029403950495059401A91B4802F0F4F9B5
:100FF00021E01A4A93420DD1E42301930223029384
:101000000023039304930323059301A9114802F0DD
:10101000E3F910E0124A93420DD14FF4107301939B
:10102000022302930023039304930923059301A948
:10103000094802F0D1F906B070BD00BF00040240BB
:10104000000002400004004000080040000C024084
:10105000000C004000200240001C0240000401403F
:101060000018004000B58BB027484FF08043036064
:10107000002343608360C360036103F0AFFB18B1DA
:101080004D212248FFF79EFC00230893099308A9ED
:101090001D4803F09FFD18B154211C48FFF792FC36
:1010A00060230193002202920392059201A916483F
:1010B00003F056FC18B15D211448FFF783FC0422AD
:1010C0000DEB0201104803F04BFC18B162210F48F0
:1010D000FFF778FC082201A90B4803F041FC18B186
:1010E00067210A48FFF76EFC0C2201A9064803F0AD
:1010F00037FC18B16C210548FFF764FC0248FFF784
:1011000011FF0BB05DF804FB5C4A0020D8A1000879
:1011100000B58BB01D481E4B0360B3234360002312
:101120008360C360036103F059FB18B17F21194844
:10113000FFF748FC00230893099308A9134803F01C
:1011400049FD18B186211348FFF73CFC6023019349
:10115000002202920392059201A90C4803F000FCC0
:1011600018B18F210B48FFF72DFC04220DEB020173
:10117000064803F0F5FB18B194210648FFF722FC5E
:101180000248FFF7CFFE0BB05DF804FB204A0020B9
:1011900000040040D8A1000800B58BB02748284BB8
:1011A0000360002343608360C360036103F016FBA8
:1011B00018B1A7212348FFF705FC002308930993E2
:1011C00008A91E4803F006FD18B1AE211D48FFF71F
:1011D000F9FB60230193002202920392059201A978
:1011E000164803F0BDFB18B1B7211648FFF7EAFB1C
:1011F00004220DEB0201114803F0B2FB18B1BC212F
:101200001048FFF7DFFB082201A90C4803F0A8FBF8
:1012100018B1C1210B48FFF7D5FB0C2201A90748E3
:1012200003F09EFB18B1C6210648FFF7CBFB03482D
:10123000FFF778FE0BB05DF804FB00BFA849002063
:1012400000080040D8A1000800B58BB02A482B4BFD
:101250000360592343600023836040F6C312C260D9
:10126000036103F0BBFA18B1D9212548FFF7AAFBA7
:1012700000230893099308A91F4803F0ABFC18B199
:10128000E0211F48FFF79EFB602301934FF47A7320
:10129000029300220392059201A9174803F060FB14
:1012A00018B1E9211648FFF78DFB04220DEB02016E
:1012B000114803F055FB18B1EE211148FFF782FBEE
:1012C00000230293082201A90B4803F049FB18B13F
:1012D000F4210B48FFF776FB0C2201A9064803F026
:1012E0003FFB18B1F9210648FFF76CFB0248FFF7F6
:1012F00019FE0BB05DF804FBE4490020000C00402F
:10130000D8A1000800B591B03548364B03600023E2
:1013100043608360C3600361436103F05FFA20B1FF
:101320004FF487713048FFF74DFB00230E930F9366
:101330000EA92B4803F04EFC20B140F215112A48AB
:10134000FFF740FB602307930022089209920A925C
:101350000B920C920D9207A9214803F001FB20B1DA
:1013600040F221112048FFF72DFB042207A91C4859
:1013700003F0F6FA20B14FF493711B48FFF722FBFC
:10138000082207A9164803F0EBFA20B140F22B110E
:101390001548FFF717FB0C2207A9114803F0E0FAE4
:1013A00020B14FF498711048FFF70CFB0023009315
:1013B00001930293039304934FF400520592069312
:1013C0006946074803F076FC20B14FF49E71064849
:1013D000FFF7F8FA0248FFF7A5FD11B05DF804FB2E
:1013E0006C49002000040140D8A1000800B589B074
:1013F0001B481C4B0360592343600023836040F665
:10140000C312C260036103F0E9F920B14FF4A77180
:101410001548FFF7D7FA602301934FF47A730293CC
:1014200000220392059201A90D4803F099FA20B118
:1014300040F257110C48FFF7C5FA04220DEB0201E8
:10144000074803F08DFA20B14FF4AE710648FFF75C
:10145000B9FA0348FFF766FD09B05DF804FB00BF69
:10146000984A002000180040D8A1000808B50B4891
:101470000B4B03600B4B436000238360C3604FF44E
:10148000806202610C2242618361C36103F0ACFEA1
:1014900018B154210448FFF795FA08BD944C002078
:1014A00000100140A0860100E8A1000808B50B4823
:1014B0000B4B03604FF4E133436000238360C36050
:1014C00003610C2242618361C36103F08DFE18B198
:1014D00067210448FFF776FA08BD00BF144D0020CD
:1014E00000440040E8A1000808B50B480B4B03601E
:1014F0004FF4E133436000238360C36003610C2237
:1015000042618361C36103F06FFE18B17A21044820
:10151000FFF758FA08BD00BFF44B00200048004018
:10152000E8A1000808B50B480B4B03604FF4E1330A
:10153000436000238360C36003610C2242618361C6
:10154000C36103F051FE18B18D210448FFF73AFA48
:1015500008BD00BFD44C002000140140E8A10008E1
:1015600030B58BB004460368824A93423CD10025D3
:101570000195814B5A6C42F010025A645B6C03F087
:1015800010030193019BC0230593022306930123BB
:101590000793032308930723099305A9774801F0CC
:1015A0001BFF7748774B03604FF000634360856013
:1015B000C5604FF48063036145618561C561056263
:1015C000456201F0CBFC18B1B7216F48FFF7FAF97B
:1015D0006B4B63639C6300220521252001F0CEFB49
:1015E000252001F00DFCC2E0684A93423CD1002561
:1015F0000295614B1A6C42F400321A641B6C03F4BE
:1016000000330293029B6023059302230693012378
:101610000793032308930723099305A95C4801F066
:10162000DBFE5C485C4B03604FF000634360856009
:10163000C5604FF48063036145618561C5610562E2
:10164000456201F08BFC18B1E4214F48FFF7BAF96D
:10165000504B63639C6300221146262001F08EFBF1
:10166000262001F0CDFB82E04C4A93423ED100257A
:101670000395414B1A6C42F480221A641B6C03F4EC
:1016800080230393039B4FF4407305930223069337
:1016900001230793032308930723099305A93C48D3
:1016A00001F09AFE3E483F4B03604FF000634360F9
:1016B0008560C5604FF48063036145618561C561E4
:1016C0000562456201F04AFC20B140F211112E483A
:1016D000FFF778F9324B63639C63002211462720A1
:1016E00001F04CFB272001F08BFB40E02E4A934297
:1016F0003DD100250495204B5A6C42F020025A64DB
:101700005B6C03F020030493049B4FF48443059324
:1017100002230693012307930323089308230993C5
:1017200005A9224801F058FE2148224B03604FF0E2
:10173000206343608560C5604FF480630361456149
:101740008561C5610562456201F008FC20B14FF476
:101750009F710D48FFF736F9154B63639C630022B8
:101760000521472001F00AFB472001F049FB0BB09F
:1017700030BD00BF001001400038024000040240AC
:10178000344C002040640240E8A1000800440040BE
:10179000000C0240D44A002088600240004800400B
:1017A000944B0020286002400014014000180240C1
:1017B000344B002028640240124A12F0070F07D071
:1017C000D11D21F00701C1F5705313440A4601E011
:1017D0004FF470530C480260002141601344083BF1
:1017E00023F007030948036059601960991A516092
:1017F0001360074B1960074B19604FF00042064B0E
:101800001A607047640A00205C0A0020580A002011
:1018100068460020540A002064460020134B00E074
:1018200013461A688242FBD310B45C6819198842C7
:1018300003D14168214459601846446801198A421D
:101840000CD10B4909688A4206D052682244426092
:101850001A681268026002E0016000E002609842CB
:1018600000D018605DF8044B704700BF5C0A002090
:10187000580A002070B5044600F054FC394B1B6830
:101880000BB9FFF799FF384B1B681C4253D194B139
:10189000083414F0070F0ED024F00704083404F0C5
:1018A000070343B14FF0500383F31188BFF36F8FE9
:1018B000BFF34F8FFEE7002C3FD02C4B1B689C42A0
:1018C0003DD82B4B1D6801E02B4615466A689442B3
:1018D00002D92A68002AF7D1224A1268954230D0EC
:1018E0001E6808362A681A606B681B1B102B10D9FB
:1018F000281910F0070F08D04FF0500383F3118818
:10190000BFF36F8FBFF34F8FFEE743606C60FFF74D
:1019100085FF6A6815490B689B1A0B6015490968B1
:101920008B4201D213490B600F4B1B681A436A604C
:1019300000232B6006E0002604E0002602E00026DB
:1019400000E0002600F088FC16F0070F08D04FF0EA
:10195000500383F31188BFF36F8FBFF34F8FFEE700
:10196000304670BD580A002064460020540A00200A
:101970005C0A002068460020A0B338B50346A0F1F9
:10198000080550F8042C1849096812EA010408D126
:101990004FF0500383F31188BFF36F8FBFF34F8F66
:1019A000FEE750F8080C40B14FF0500383F3118864
:1019B000BFF36F8FBFF34F8FFEE794B188B91C461A
:1019C00022EA010243F8042C00F0ACFB54F8043C7A
:1019D000064A11680B4413602846FFF71FFF00F00A
:1019E0003BFC38BD704700BF64460020540A00200D
:1019F0000B4B1B68B3F1FF3F08D04FF0500383F34C
:101A00001188BFF36F8FBFF34F8FFEE74FF0500386
:101A100083F31188BFF36F8FBFF34F8FFEE700BFD3
:101A20001000002006480068006880F3088862B64D
:101A300061B6BFF34F8FBFF36F8F00DF00BF0000B1
:101A400008ED00E0DFF80C00016841F4700101606E
:101A50007047000088ED00E04FF0807340F8043CD0
:101A600021F0010140F8081C054B40F80C3C40F8FF
:101A7000202C6FF0020340F8243C4438704700BF2C
:101A8000F119000800000000000000000000000044
:101A9000074B19680868B0E8F04F80F30988BFF376
:101AA0006F8F4FF0000080F311887047AFF3008014
:101AB000344700204FF0500383F31188BFF36F8F3A
:101AC000BFF34F8F0A4A136801331360012B0DD106
:101AD000084B1B6813F0FF0F08D04FF0500383F33F
:101AE0001188BFF36F8FBFF34F8FFEE7704700BFC2
:101AF0001000002004ED00E0094B1B6843B94FF0D3
:101B0000500383F31188BFF36F8FBFF34F8FFEE74E
:101B1000013B034A13600BB983F31188704700BF80
:101B20001000002000000000000000000000000085
:101B3000EFF30980BFF36F8F154B1A681EF0100F7B
:101B400008BF20ED108A20E9F04F10604DF8043DE9
:101B50004FF0500080F31188BFF34F8FBFF36F8FAA
:101B600000F05CFC4FF0000080F3118808BC19689D
:101B70000868B0E8F04F1EF0100F08BFB0EC108AF4
:101B800080F30988BFF36F8F704700BFAFF3008009
:101B90003447002008B54FF0500383F31188BFF39A
:101BA0006F8FBFF34F8F00F0C5FA18B14FF080521E
:101BB000024B1A60002383F3118808BD04ED00E096
:101BC000064B1B68064AA2FB03239B09013B054AFF
:101BD00013600722044B1A60704700BF0C000020FE
:101BE000D34D621014E000E010E000E0314B1A68C1
:101BF000314B9A4208D14FF0500383F31188BFF361
:101C00006F8FBFF34F8FFEE72A4B1A682B4B9A4218
:101C100008D14FF0500383F31188BFF36F8FBFF3E8
:101C20004F8FFEE700B583B0254B1A78D2B20192F0
:101C3000FF221A701B78DBB28DF803309DF8033059
:101C400003F050031F4A137007221F4B1A6009E06C
:101C50001D4A1368013B13609DF803305B00DBB243
:101C60008DF803309DF8033013F0800FF0D1164A41
:101C700013681B0203F4E0631360019BDBB2104A9C
:101C80001370124B1A6842F470021A601A6842F01C
:101C900070421A60FFF794FF00220D4B1A60FFF7A5
:101CA000D1FE0C4A136843F040431360FFF7BAFEBD
:101CB000FFF79EFE00ED00E071C20F4170C20F41C0
:101CC00000E400E06C4600207046002020ED00E0BB
:101CD0001000002034EF00E0842801D0033070476A
:101CE0000020704708B500F0DFF9002008BD00BFF4
:101CF000F0B585B00F46446805680669B0F908007C
:101D0000FFF7EAFF03AB019300903B46B2B22946CE
:101D1000204600F097F9012801D1039800E0002047
:101D200005B0F0BD08B508B90120FFE700F010FBD1
:101D3000002008BD08B500F0BBFB012801D0FFF76B
:101D400029FF08BD00F1080343604FF0FF328260B5
:101D5000C360036100230360704700BF0023036179
:101D6000704700BF43684B609A688A609A68516008
:101D700099600861036801330360704730B40D68EF
:101D8000B5F1FF3F01D1026907E000F1080200E070
:101D90001A4653681C68A542FAD253684B60996092
:101DA0008A605160086103680133036030BC70478A
:101DB00003694268816891608268416851605A682D
:101DC000904201D182685A6000220261186801388D
:101DD000186070470A4B1B681B680BB9012300E0B1
:101DE000002323B14FF0FF32064B1A607047044BBB
:101DF0001B68DB68DB685A68024B1A60704700BFDB
:101E0000784600205447002010B50446006BFFF7C9
:101E1000B3FD2046FFF7B0FD10BD00BF2DE9F04730
:101E200080469946089D099F0A9C236B02F18042D7
:101E3000013A03EB820626F00706002306E0C856A7
:101E4000E21882F83400CA5612B101330F2BF6D9CA
:101E5000002384F84330062D00D90625E562656429
:101E60004FF0000AC4F848A0201DFFF777FF04F1E7
:101E70001800FFF773FF2461C5F10705A5616462CF
:101E8000C4F84CA084F850A04A4641463046FFF7BB
:101E9000E3FD206007B13C60BDE8F08738B5002461
:101EA00007E004EB840293000E481844FFF74AFF52
:101EB0000134062CF5D90C4D2846FFF743FF0B4C97
:101EC0002046FFF73FFF0A48FFF73CFF0948FFF7AE
:101ED00039FF0948FFF736FF084B1D60084B1C60AF
:101EE00038BD00BF9C4600205C47002070470020A2
:101EF0003847002080460020844700207846002094
:101F00009446002010B50446FFF7D4FD204A13681C
:101F1000013313601F4B1B683BB91E4B1C601368D9
:101F2000012B0DD1FFF7BAFF0AE01B4B1B683BB931
:101F3000184B1B68DA6AE36A9A4201D8154B1C6099
:101F4000164A136801331360E36A012202FA03F1AF
:101F5000134802680A43026003EB83039A00211DC1
:101F600010481044FFF7FEFEFFF7C6FD0A4B1B6842
:101F70006BB1084B1B68DA6AE36A9A4207D24FF0EA
:101F80008052094B1A60BFF34F8FBFF36F8F10BDA4
:101F900030470020344700207C460020584700206E
:101FA000984700209C46002004ED00E070B50446F0
:101FB0000E461D4B1D681D4B18680430FFF7F8FED8
:101FC00050B91A4B1B68DA6A012303FA02F2184966
:101FD0000B6823EA02030B60B4F1FF3F07D136B16F
:101FE000124B196804311348FFF7BCFE70BD2C4436
:101FF0000E4B1B685C60A54207D90F4B18680B4B52
:1020000019680431FFF7BAFE70BD0C4B1868074B16
:1020100019680431FFF7B2FE094B1B689C4201D2DC
:10202000074B1C6070BD00BF5047002034470020A4
:1020300098470020844700209446002078460020DE
:10204000544700202DE9F04385B006460F4615465B
:1020500098469000FFF70EFC60B181465420FFF7D0
:1020600009FC044610B1C0F8309004E04846FFF780
:1020700083FC00E000248CB10023039302940D9BA9
:1020800001930C9B009343462A4639463046FFF79E
:10209000C5FE2046FFF736FF012001E04FF0FF307C
:1020A00005B0BDE8F08300BF00B583B0174B0193C6
:1020B00000230093802216491648FFF7C3FF01282A
:1020C00014D14FF0500383F31188BFF36F8FBFF328
:1020D0004F8F4FF0FF32104B1A6001220F4B1A60E6
:1020E00000220F4B1A60FFF781FD0BE0B0F1FF3FBC
:1020F00008D14FF0500383F31188BFF36F8FBFF304
:102100004F8FFEE703B05DF804FB00BF4C47002093
:10211000F8A10008F5230008544700207C46002061
:1021200050470020024A136801331360704700BF14
:1021300028470020F8B53D4B1B68002B69D13C4B6C
:102140001D6801351D60C5B93A4B1B681B6843B15A
:102150004FF0500383F31188BFF36F8FBFF34F8F9E
:10216000FEE7344A1168344B186810601960334A2E
:10217000136801331360FFF72DFE314B1B689D423E
:1021800003D200243AE0012400E00024294B1B681C
:102190001B680BB9012300E0002323B14FF0FF328D
:1021A000274B1A602AE0234B1B68DB68DE687368E4
:1021B0009D4202D2224A136020E0371D3846FFF7C5
:1021C000F7FDB36A1BB106F11800FFF7F1FDF36AE2
:1021D000012202FA03F11B4802680A43026003EB82
:1021E00083039A00394618481044FFF7BBFDF26A92
:1021F000164B1B68DB6A9A42C5D2C7E7134B1B68B4
:10220000DB6A03EB83039A000F4B9B58012B06D824
:1022100006E00F4A136801331360002400E0012434
:102220000C4B1B6803B101242046F8BD2847002051
:102230005047002078460020944600207446002035
:1022400054470020984700209C4600203447002037
:10225000984600209C47002038B5344B1B6843B992
:102260004FF0500383F31188BFF36F8FBFF34F8F8D
:10227000FEE7FFF71FFC2D4B1A68013A1A601B6836
:10228000002B4CD12A4B1B6833BB00244AE0294B5E
:10229000DB68DC6804F11800FFF78AFD251D28467D
:1022A000FFF786FDE36A012202FA03F12248026881
:1022B0000A43026003EB83039A0029461F48104437
:1022C000FFF750FDE26A1E4B1B68DB6A9A4204D39B
:1022D00001221C4B1A6000E00024164B1B68002BE7
:1022E000D5D10CB1FFF776FD174B1C6854B1FFF741
:1022F00021FF10B10122134B1A60013CF7D10022DB
:10230000114B1A600F4B1B685BB14FF080520F4BA3
:102310001A60BFF34F8FBFF36F8F012402E00024D8
:1023200000E00024FFF7E8FB204638BD28470020E6
:102330003047002038470020984700209C46002066
:10234000344700209C4700209846002004ED00E020
:1023500010B5A8B10446104B1B6843B14FF05003B1
:1023600083F31188BFF36F8FBFF34F8FFEE7FFF743
:10237000D9FE00212046FFF719FEFFF76DFF00E0B0
:10238000002038B94FF08052044B1A60BFF34F8FD2
:10239000BFF36F8F10BD00BF2847002004ED00E0A1
:1023A00010B51BE0FFF7BEFE0F4B1C68FFF754FF94
:1023B000A4B1FFF77FFB0C4BDB68DC68201DFFF747
:1023C000F7FC0A4A1368013B1360094A1368013B92
:1023D0001360FFF791FB2046FFF716FD044B1B68C7
:1023E000002BDFD110BD00BF804600203047002009
:1023F0002C47002008B5FFF7D3FF064B1B68012BC5
:10240000F9D94FF08052044B1A60BFF34F8FBFF3DE
:102410006F8FF0E79C46002004ED00E01F4B1B6827
:102420001BB101221E4B1A60704700221C4B1A6020
:102430001C4B1B68B3FA83F3DBB2C3F11F0303EB3E
:1024400083018A0018498A5842B94FF0500383F338
:102450001188BFF36F8FBFF34F8FFEE730B4124D7B
:102460009900CA189000284442685468446019448E
:102470008A0008322A44944205D1606803EB830144
:102480008A002A44506003EB83039A00064B1A44E7
:102490005368DA68054B1A6030BC70472847002043
:1024A0009C470020984700209C460020344700208D
:1024B000054B1B6823B1054B1B681BB902207047F5
:1024C00001207047002070477C46002028470020EC
:1024D00010B44A6B947DD37D43EA042303804A6B96
:1024E000147E537E43EA04231BB21A4A82FB034242
:1024F000DB17A3EB620343804B6B9B7E0371028B64
:102500004283496B0C7D4B7D43EA042303839A1A73
:10251000B2F5805F03DD8268013A826005E012F562
:10252000805F02DA826801328260826803EB4233A4
:10253000C2889B1AC3604FF4B47202FB03F3002BF2
:1025400002DA03F5FF531F335B1303615DF8044B9D
:10255000704700BF676666664A6B117D537D43EA2C
:1025600001230383C380704710B5426B136840F2A8
:1025700005218B4233D003D8B3F5007F0AD869E038
:1025800040F207218B423AD031D340F201418B42D5
:1025900048D05FE0013BDBB2354A1370D900C91A5D
:1025A0008A0034490A4451694C1C5461322908D8C4
:1025B000C3EBC3039A0001462E481044FFF7CCFF3B
:1025C00007E0C3EBC3039A0001462A481044FFF713
:1025D0007FFF274B1878023000F05CF83AE00146A4
:1025E0002548FFF775FF092000F054F832E0014656
:1025F0002248FFF76DFF0A2000F04CF82AE0204A3D
:102600005369013353610A2B04D801461046FFF782
:10261000A3FF03E001461A48FFF75AFF0B2000F022
:1026200039F817E0117D537D1B0443EA0163917D66
:1026300043EA0123D27D134307EE903AF8EEE77A9E
:102640009FED107A67EE877A0F4BC3ED007A012079
:1026500000F020F80D4B1A68536943F002035361F0
:102660000B4B1A68536943F00203536110BD00BF5E
:10267000A0470020A4470020904D0020744D00206A
:10268000584D00200AD723BC544D0020904800200C
:102690004C48002000EB40029300094A13449B6819
:1026A00013F0020F0AD010B5044600F02DF804EB29
:1026B0004404A300024A1344586010BD704700BF91
:1026C000AC4D002008B50B4B1A6842F400721A603A
:1026D0001A6842F480621A601A6842F480721A60C2
:1026E000032000F02DFB0020FEF780FAFEF74EFAE3
:1026F000002008BD003C0240024A13680133136009
:10270000704700BF444E0020014B1868704700BF5F
:10271000444E0020002800F02D8138B5044603689F
:10272000954A934207D002F58062934203D0BB21C1
:102730009248FEF7DBF9A369012B03D9BC218F482E
:10274000FEF7D4F9E369012B03D9BD218B48FEF7CD
:10275000CDF9236A012B03D9BE218848FEF7C6F9BB
:10276000636A012B03D9BF218448FEF7BFF9A36A2E
:10277000012B03D9C0218148FEF7B8F9E36A012B88
:1027800003D9C1217D48FEF7B1F9A36863B1B3F164
:10279000804F09D0B3F1004F06D0B3F1404F03D0C2
:1027A000C2217648FEF7A2F9E36863B1B3F1807FF6
:1027B00009D0B3F1007F06D0B3F1407F03D0C3212D
:1027C0006E48FEF793F92369B3F5702F03D9C4213E
:1027D0006A48FEF78BF96369B3F5E00F03D9C521A9
:1027E0006648FEF783F96368013BB3F5806F03D356
:1027F000C6216248FEF77AF994F83C3013F0FF0FD7
:1028000005D1002384F83D302046FDF73DFF02232B
:1028100084F83C302268136823F0020313602268B6
:10282000136843F001031360FFF76EFF05460BE0EA
:10283000FFF76AFF401B0A2806D9032084F83C00F2
:10284000002384F83D3038BD23685A6812F0010F28
:10285000EED05A6812F0010F7DD0A269012A04D18E
:102860001A6842F080021A6003E01A6822F08002BF
:102870001A60E369012B05D12268136843F0400315
:10288000136004E02268136823F040031360236A96
:10289000012B05D12268136843F02003136004E084
:1028A0002268136823F020031360636A012B05D1AB
:1028B0002268136843F01003136004E02268136871
:1028C00023F010031360A36A012B05D1226813685B
:1028D00043F00803136004E02268136823F0080340
:1028E0001360E36A012B05D12268136843F00403E7
:1028F000136004E02268136823F004031360216866
:10290000A268E3681A4323691A4363691A43636838
:10291000013B1343CB612268136823F0010313606A
:10292000FFF7F2FE05460BE0FFF7EEFE401B0A281C
:1029300006D9032084F83C00002384F83D3038BDDC
:1029400023685A6812F0010FEED15B6813F0010F93
:1029500003D0002302E0002300E001232BB100207C
:102960002064012384F83C3038BD042384F83C30D3
:10297000012038BD012070470064004000A200081B
:10298000704700BF08B50268536923F00103536123
:1029900090F83C30DBB2122B04D10268536923F467
:1029A0000F43536190F83C30DBB2522B07D0722BAF
:1029B00009D0422B0BD1222380F83C300AE032238D
:1029C00080F83C3006E0622380F83C3002E00123CE
:1029D00080F83C30FFF7D4FF002008BD10B50C464E
:1029E00009B9436B00E0836B016804F11B0212011B
:1029F0008A5802F004029A603AB9016804F11B0295
:102A000012018A58520D1A6006E0016804F11B0297
:102A100012018A58D2085A60016804F11B0212019F
:102A2000895801F00201D96001681144496801F038
:102A30000F0119611C6201680A445268C2F307223F
:102A4000DA61016822011144D1F8B81119750168E1
:102A50001144D1F8B811090A597501681144D1F827
:102A6000B811090C997501681144D1F8B811090E13
:102A7000D97501681144D1F8BC1119760168114467
:102A8000D1F8BC11090A597601681144D1F8BC117A
:102A9000090C997601680A44D2F8BC21120EDA7644
:102AA00044B903682022DA600268536923F00A03FC
:102AB000536107E0036820221A610268536923F01A
:102AC0005003536190F83C30DBB2222B01D0322B03
:102AD00004D10268536923F40F435361C4B990F8D9
:102AE0003C30DBB2622B07D0722B09D0422B0BD1CA
:102AF000122380F83C3023E0322380F83C301FE082
:102B0000522380F83C301BE0012380F83C3017E072
:102B100090F83C30DBB2622B07D0722B09D0522BDD
:102B20000BD1122380F83C300AE0222380F83C309D
:102B300006E0422380F83C3002E0012380F83C307C
:102B4000FFF712FD002010BD704700BF70B50446AE
:102B50000268D168536911F0100F07D003F0080321
:102B600033B11023D3604FF4007502E0002500E07C
:102B7000002522681169536903F0400311F0100F1A
:102B800004D01BB145F480651023136123685A6992
:102B900012F0010F2AD09E689968654A0A40996828
:102BA00021F06F4121F47C01090C09046148B04314
:102BB00005D05F48824202D05F4A914216D199689F
:102BC0009A6802F400729B6803F4003311F0020F5C
:102BD00001D102B91BB12046FFF7D4FE01E045F454
:102BE000006522689168554B0B4393602368DA684F
:102BF0005B6903F0020312F0030F04D01BB1002144
:102C00002046FFF7EBFE23681A695B6903F01003A7
:102C100012F0030F04D01BB101212046FFF7DEFEA6
:102C2000236C2B432364236898695A6902F48072E9
:102C3000596901F4004110F0010F05D022B119B11A
:102C4000226C42F00102226498695A6902F400720F
:102C5000596901F4004110F0020F05D022B119B1F9
:102C6000226C42F00202226498695A6902F480627E
:102C7000596901F4004110F0040F05D022B119B1D7
:102C8000226C42F00402226498695A6902F40062DC
:102C9000596901F4004110F0700F36D0002A34D089
:102CA000002932D09A6902F07002302A16D004D876
:102CB000102A09D0202A0CD023E0502A18D0602AEC
:102CC0001BD0402A1DD10EE0226C42F00802226483
:102CD00017E0226C42F01002226412E0226C42F0F3
:102CE000200222640DE0226C42F04002226408E0DF
:102CF000226C42F08002226403E0226C42F4807273
:102D000022649A6922F070029A61236C7BB1236875
:102D100004225A60012384F83C302268536923F46A
:102D20000F4323F05B0353612046FFF70DFF70BD97
:102D3000000300080300000400000310190501004F
:102D400010B50446C31E042B03D9A4210948FDF77E
:102D5000CDFE094AD36823F4E0631B041B0C240254
:102D600004F4E064234343F0BF6343F40033D360CF
:102D700010BD00BF38A2000800ED00E070B50446A9
:102D80000E4615460F2A03D9BC211A48FDF7AEFEA0
:102D90000F2E03D9BD211748FDF7A8FE164BDA68A0
:102DA000C2F30222C2F10701042928BF0421131D26
:102DB000062B01D9033A00E00022012303FA01F1B6
:102DC00001393140914003FA02F2013A2A400A43A4
:102DD000002C06DA04F00F041201D2B2074B1A5588
:102DE00070BD1201D2B204F1604404F5614484F86C
:102DF000002370BD38A2000800ED00E014ED00E0F3
:102E000010B5041E03DAD0210648FDF76FFE6209F3
:102E100004F01F04012303FA04F4034B43F8224097
:102E200010BD00BF38A2000800E100E00138B0F199
:102E3000807F0AD2064B5860F021064A82F82310A0
:102E40000020986007221A6070470120704700BF79
:102E500010E000E000ED00E010B50446042805D0C5
:102E600020B140F2DB110848FDF740FE042C05D1EB
:102E7000064A136843F00403136010BD034A136845
:102E800023F00403136010BD38A2000810E000E036
:102E90000268D3B2103B0B49A1FB03131B090A497B
:102EA000C95CC165032B06D922F47F7222F00302AC
:102EB0000432826504E022F47F7222F0030282650C
:102EC000806D7047ABAAAAAA74A20008836A8269BF
:102ED00082B9012B08D00BB1022B2ED1C36A13F09B
:102EE000807F2CD100207047C36AB3F1C07F28D007
:102EF00000207047B2F5005F13D1032B03D8DFE841
:102F000003F02204220A00207047C36A13F0807F76
:102F10001BD100207047C36AB3F1C07F17D00020D7
:102F20007047022B15D9032B01D000207047C36ACC
:102F300013F0807F0FD100207047002070470120E0
:102F40007047012070470120704701207047012021
:102F50007047012070470120704700BF70B50446DC
:102F6000FFF7D2FB002C00F02B8105462368954A21
:102F7000934231D0183293422ED0183293422BD044
:102F80001832934228D01832934225D018329342F7
:102F900022D0183293421FD0183293421CD002F52F
:102FA0005672934218D01832934215D01832934279
:102FB00012D0183293420FD0183293420CD01832EC
:102FC000934209D01832934206D01832934203D06C
:102FD000CA217D48FDF78AFD6368C3B1B3F1007F64
:102FE00015D0B3F1806F12D0B3F1C06F0FD0B3F131
:102FF000006F0CD0B3F1206F09D0B3F1406F06D051
:10300000B3F1606F03D0CB216F48FDF76FFDA3686C
:103010003BB1402B05D0802B03D0CC216A48FDF773
:1030200065FDE368B3F5007F04D01BB1CD21664890
:10303000FDF75CFD2369B3F5806F04D01BB1CE2191
:103040006148FDF753FD63694BB1B3F5006F06D0DE
:10305000B3F5805F03D0CF215B48FDF747FDA3693F
:103060004BB1B3F5005F06D0B3F5804F03D0D0214C
:103070005548FDF73BFDE36943B1B3F5807F05D0CB
:10308000202B03D0D1215048FDF730FD236A63B1D6
:10309000B3F5803F09D0B3F5003F06D0B3F5403F0C
:1030A00003D0D2214848FDF721FD636A2BB1042BE0
:1030B00003D0D3214448FDF719FD636A23B3A36A03
:1030C000032B03D9D8214048FDF710FDE36A63B113
:1030D000B3F5000F09D0B3F1807F06D0B3F1C07F04
:1030E00003D0D9213848FDF701FD236B63B1B3F557
:1030F000001F09D0B3F5800F06D0B3F5C00F03D081
:10310000DA213148FDF7F2FC002384F83430022341
:1031100084F835302268136823F0010313600AE055
:10312000FFF7F2FA401B052805D920236365032029
:1031300084F8350070BD23681A6812F0010FEFD1D2
:103140001A68224810406168A2681143E26811437E
:103150002269114362691143A2691143E2690A437A
:10316000216A114340EA0102616A042903D1E06A3D
:10317000216B01430A431A602668756925F007052B
:10318000636A1D43042B0DD1A36A1D43E36A4BB14F
:103190002046FFF79BFE28B140236365012084F899
:1031A000350070BD75612046FFF772FEE26D3F236A
:1031B0009340836000206065012384F8353070BD42
:1031C000012070BD106002407CA200083F8010F01A
:1031D00090F83530DBB2022B03D080234365012009
:1031E0007047052380F835300268136823F0010327
:1031F00013600020704700BFF0B583B00446002381
:103200000193714B1B68714DA5FB0335AD0A876DAA
:103210003E68C26D082393401E4210D003681A68AE
:1032200012F0040F0BD01A6822F004021A60C26D6B
:1032300008239340BB60436D43F001034365E26D97
:10324000634B93401E4209D02268526912F0800FEE
:1032500004D0BB60636D43F002036365E26D5D4BB8
:1032600093401E4209D02268126812F0020F04D067
:10327000BB60636D43F004036365E26D102393400C
:103280001E4224D02268126812F0080F1FD0BB60C3
:1032900023681A6812F4802F0DD01B6813F4002FD6
:1032A00004D1236C9BB12046984710E0A36C73B106
:1032B000204698470BE01A6812F4807F03D11A6801
:1032C00022F008021A60236C0BB120469847E26D89
:1032D000202393401E4252D02268126812F0100F31
:1032E0004DD0BB6094F83530DBB2052B22D122687B
:1032F000136823F0160313602268536923F08003D8
:103300005361236C0BB9A36C23B12268136823F0BB
:1033100008031360E26D3F239340BB60002384F8F1
:103320003430012384F83530236D002B49D02046FA
:10333000984746E023681A6812F4802F0DD01B6866
:1033400013F4002F04D1636CCBB12046984716E0EC
:10335000E36BA3B12046984711E01A6812F4807F0E
:1033600009D11A6822F010021A60002384F8343060
:10337000012384F83530E36B0BB120469847636D29
:10338000FBB1636D13F0010F17D0052384F83530BE
:103390002268136823F001031360019B013301933A
:1033A0009D4204D323681B6813F0010FF5D100235D
:1033B00084F83430012384F83530E36C0BB12046B7
:1033C000984703B0F0BD00BF0C000020B5814E1B34
:1033D00001008000040080002DE9F04782B08046A3
:1033E0000F46B24B98422BD003F58063984227D00A
:1033F00003F58063984223D003F5806398421FD081
:1034000003F5806398421BD003F58063984217D080
:1034100003F58063984213D003F5806398420FD080
:1034200003F5806398420BD003F58063984207D080
:1034300003F58063984203D0C5219D48FDF756FBF4
:103440003B689AB212B11B0C1B041BB1C6219848F1
:10345000FDF74CFB7B68012B22D9112B20D0022BCE
:103460001ED0122B1CD0934A934219D002F5801221
:10347000934215D002F58012934211D0A2F5F812B2
:1034800093420DD002F58012934209D002F58012CA
:10349000934205D0032B03D0C7218548FDF726FBB7
:1034A000BB68022B03D9C8218148FDF71FFB00250B
:1034B0003CE10124AC403E682640B44240F03581F6
:1034C0007B68022B01D0122B54D13B69002B41D0D9
:1034D000092B3FD0F3B3EBB3E3B3DBB3012B39D00C
:1034E00038D0022B36D035D034D0032B32D0042B39
:1034F00030D02FD02ED0052B2CD02BD0092B29D07B
:10350000062B27D0092B25D0072B23D022D021D062
:10351000082B1FD01ED01DD0092B1BD01AD00A2B70
:1035200018D017D00B2B15D00C2B13D012D00D2B7D
:1035300010D00F2B0ED0052B0CD00BD00AD0082B9F
:1035400008D007D00C2B05D0062B03D0D921584822
:10355000FDF7CCFAEA08083258F8220005F0070314
:1035600099000F238B4020EA03003B698B40034303
:1035700048F82230D8F800304FEA450A4FF00309E6
:1035800009FA0AF96FEA090903EA09027B6803F0FC
:10359000030303FA0AF31343C8F800307B685A1E8A
:1035A000012A03D9112B01D0122B1BD1FB68032B4D
:1035B00003D9EC213E48FDF799FAD8F8083009EA1A
:1035C0000302FB6803FA0AF31343C8F80830D8F87B
:1035D000043023EA04047B68C3F30013AB401C43AC
:1035E000C8F80440D8F80C3009EA0309BB6803FAAC
:1035F0000AF349EA0303C8F80C307B6813F0805FD4
:1036000000F09380002301932B4B5A6C42F48042CC
:103610005A645B6C03F480430193019BA9088A1CE4
:10362000264B53F8220005F003039B000F229A401B
:1036300020EA02001D4A904525D002F5806290459F
:1036400023D002F58062904521D002F5806290453A
:103650001FD002F5806290451DD002F58062904532
:103660001BD002F58062904519D002F5806290452A
:1036700017D002F58062904515D002F58062904522
:103680001ED109221DE000221BE0012219E00222C6
:1036900017E0032215E0042213E0052211E00622C0
:1036A0000FE007220DE008220BE000BF00000240FF
:1036B000B4A2000800001110003802400038014098
:1036C0000A2202FA03F3034302311B4A42F8213073
:1036D0001A4B1A68F34302EA0301786810F4803F3A
:1036E00001D046EA0201154A1160526803EA02015C
:1036F000786810F4003F01D046EA02010F4A516099
:10370000926803EA0201786810F4801F01D046EA4B
:1037100002010A4A9160D2681340796811F4001FCF
:1037200001D046EA0203054AD36001350F2D7FF62A
:10373000C0AE02B0BDE8F08700380140003C014057
:1037400070B5064615460C4621B940F2B11108483D
:10375000FDF7CCF9012D04D94FF4D9710448FDF7D8
:10376000C5F90DB1B46170BD2404B46170BD00BF72
:10377000B4A2000810B582B000230193244B1A6C48
:1037800042F080521A641B6C03F080530193019B3A
:103790004FF4803393FAA3F3B3FA83F303F1845322
:1037A00003F560339B0001221A60FEF7ADFF04466B
:1037B00005E0FEF7A9FF001BB0F57A7F22D8154B74
:1037C0005B6813F4803FF4D04FF4003393FAA3F313
:1037D000B3FA83F303F1845303F560339B000122B2
:1037E0001A60FEF791FF044605E0FEF78DFF001B0F
:1037F000B0F57A7F08D8074B5B6813F4003FF4D02C
:10380000002002E0032000E0032002B010BD00BF52
:10381000003802400070004030B583B004460368B1
:103820000F2B03D9F321A948FDF760F9236813F0A2
:10383000010F66D063684BB1B3F5803F06D0B3F596
:10384000A02F03D0F821A148FDF750F9A04B9B68A9
:1038500003F00C03042B0AD09D4B9B6803F00C0370
:10386000082B0DD19A4B5B6813F4800F08D0984B4E
:103870001B6813F4003F44D06368002B41D1FFE183
:103880006368B3F5803F05D1914A136843F48033F0
:10389000136015E0B3F5A02F09D18D4B1A6842F4DF
:1038A00080221A601A6842F480321A6008E0884B5D
:1038B0001A6822F480321A601A6822F480221A6090
:1038C00063687BB1FEF720FF054605E0FEF71CFFAD
:1038D000401B642800F2D6817D4B1B6813F4003F27
:1038E000F4D00EE0FEF710FF054605E0FEF70CFFF2
:1038F000401B642800F2C881754B1B6813F4003F1D
:10390000F4D1236813F0020F6AD0E368012B04D9C5
:103910004FF495716D48FDF7E9F823691F2B04D921
:1039200040F22B116948FDF7E1F8694B9B6813F0F1
:103930000C0F0AD0664B9B6803F00C03082B1BD1BD
:10394000634B5B6813F4800F16D1614B1B6813F057
:10395000020F03D0E368012B40F098815C480368B4
:1039600023F0F8012369F82292FAA2F2B2FA82F265
:1039700093400B43036033E0E368FBB10122554BF6
:103980001A60FEF7C1FE054605E0FEF7BDFE401BCE
:10399000022800F27D814E4B1B6813F0020FF4D019
:1039A0004B48036823F0F8012369F82292FAA2F247
:1039B000B2FA82F293400B43036011E00022454BC0
:1039C0001A60FEF7A1FE054605E0FEF79DFE401BCE
:1039D000022800F25F813E4B1B6813F0020FF4D106
:1039E000236813F0080F2ED06369012B04D940F22D
:1039F0006B113648FDF77AF8636993B10122364BB3
:103A00001A60FEF781FE054605E0FEF77DFE401BCD
:103A1000022800F241812E4B5B6F13F0020FF4D0AD
:103A200011E000222C4B1A60FEF76EFE054605E001
:103A3000FEF76AFE401B022800F23081244B5B6FC8
:103A400013F0020FF4D1236813F0040F76D0A368AB
:103A5000012B06D9052B04D040F295111B48FDF728
:103A600045F8002301931A4B1A6C42F080521A64F5
:103A70001B6C03F080530193019B184A136843F4B5
:103A800080731360FEF740FE054605E0FEF73CFE3E
:103A9000401B022800F20481104B1B6813F4807F46
:103AA000F4D0A368012B05D1094A136F43F0010339
:103AB00013671EE0052B13D1054B1A6F42F0040269
:103AC0001A671A6F42F001021A6712E0F0A20008AA
:103AD0000038024000004742800E4742007000401C
:103AE000784B1A6F22F001021A671A6F22F0040253
:103AF0001A67A3688BB1FEF707FE054607E0FEF7DD
:103B000003FE401B41F28833984200F2CB806D4B9C
:103B10001B6F13F0020FF2D010E0FEF7F5FD054623
:103B200007E0FEF7F1FD401B41F28833984200F2B6
:103B3000BB80644B1B6F13F0020FF2D1A369022B01
:103B400004D94FF4E5716048FCF7D0FFA369002B5E
:103B500000F0AC805B4A926802F00C02082A00F088
:103B6000A780022B79D1E3693BB1B3F5800F04D074
:103B700040F2D3115448FCF7B9FF236A3F2B04D914
:103B80004FF4EA715048FCF7B1FF636A323BB3F57A
:103B9000BF7F04D940F2D5114B48FCF7A7FFA36AB9
:103BA000022B0AD0042B08D0062B06D0082B04D0F9
:103BB0004FF4EB714448FCF799FFE36A023B0D2B8D
:103BC00004D940F2D7114048FCF790FF00223F4B48
:103BD0001A60FEF799FD054604E0FEF795FD401BCF
:103BE000022867D8374B1B6813F0007FF5D1E169D5
:103BF000236A1943636A47F6C07292FAA2F2B2FAD4
:103C000082F293401943A36A5B085A1E4FF4403373
:103C100093FAA3F3B3FA83F302FA03F30B43E26AD2
:103C20004FF0706191FAA1F1B1FA81F18A4013432A
:103C3000244A53600122254B1A60FEF765FD0446B5
:103C400004E0FEF761FD001B022835D81D4B1B6800
:103C500013F0007FF5D0002031E000221B4B1A60EA
:103C6000FEF752FD044604E0FEF74EFD001B02285D
:103C700024D8144B1B6813F0007FF5D100201EE000
:103C800001201CE003201AE0032018E0012016E0C8
:103C9000032014E0032012E0032010E003200EE0D4
:103CA00003200CE003200AE0032008E0002006E0E7
:103CB000012004E0032002E0032000E0032003B021
:103CC00030BD00BF00380240F0A20008600047424B
:103CD000254B9B6803F00C03042B3FD0082B01D02D
:103CE0002248704710B4204B586800F03F005B68D2
:103CF00013F4800F10D01E4BB3FBF0F01A4B5A6830
:103D000047F6C0710A4091FAA1F3B3FA83F322FA9D
:103D100003F303FB00F310E0144BB3FBF0F0124B82
:103D20005A6847F6C07402EA040194FAA4F2B2FA9F
:103D300082F221FA02F202FB00F30B4A506800F40F
:103D400040324FF4403090FAA0F0B0FA80F022FAFE
:103D500000F001304000B3FBF0F001E00448704790
:103D60005DF8044B704700BF003802400024F400A7
:103D7000001BB70070B504460D460368013B0E2BCF
:103D800004D940F235218F48FCF7B0FE0F2D04D93D
:103D900040F236218B48FCF7A9FE8B4B1B6803F0E1
:103DA0000F039D4208D9EBB2874A1370136803F0E2
:103DB0000F039D4240F0F480236813F0020F1DD0E2
:103DC000A368A3B1802B12D0902B10D0A02B0ED0C3
:103DD000B02B0CD0C02B0AD0D02B08D0E02B06D0B3
:103DE000F02B04D040F24D217648FCF77FFE774956
:103DF0008B6823F0F002A36813438B60236813F0F1
:103E0000010F6BD06368032B04D94FF415716D4813
:103E1000FCF76CFE6268012A05D16C4B1B6813F439
:103E2000003F0FD1BEE0931E012B05D8674B1B68E6
:103E300013F0007F06D1B7E0644B1B6813F0020F4C
:103E400000F0B48061498B6823F0030313438B6057
:103E5000FEF75AFC06466368012B0FD107E0FEF718
:103E600053FC801B41F28833984200F2A180574BEB
:103E70009B6803F00C03042BF1D12FE0022B0FD130
:103E800007E0FEF741FC801B41F28833984200F2C4
:103E900091804E4B9B6803F00C03082BF1D11DE081
:103EA000032B16D107E0FEF72FFC801B41F288336D
:103EB000984200F28180454B9B6803F00C030C2B69
:103EC000F1D10BE0FEF720FC801B41F288339842D1
:103ED00074D83E4B9B6813F00C0FF3D13A4B1B6820
:103EE00003F00F039D4207D2EAB2374B1A701B68EA
:103EF00003F00F039D4263D1236813F0040F19D020
:103F0000E36883B1B3F5805F0DD0B3F5A05F0AD04D
:103F1000B3F5C05F07D0B3F5E05F04D040F2B22143
:103F20002848FCF7E3FD29498B6823F4E052E36855
:103F300013438B60236813F0080F1AD0236983B1F1
:103F4000B3F5805F0DD0B3F5A05F0AD0B3F5C05FC5
:103F500007D0B3F5E05F04D040F2B9211948FCF76F
:103F6000C5FD1A4A936823F46043216943EAC103FB
:103F70009360FFF7ADFE154B9B6803F0F002F02352
:103F800093FAA3F3B3FA83F322FA03F3104AD35C50
:103F9000D840104B18600020FCF728FE002070BDB0
:103FA000012070BD012070BD012070BD012070BDD9
:103FB000032070BD032070BD032070BD032070BDC1
:103FC000012070BDF0A20008003C02400038024011
:103FD000C0A100080C000020014B1868704700BF0A
:103FE0000C00002008B5FFF7F7FF084B9B6803F4AF
:103FF000E0524FF4E05393FAA3F3B3FA83F322FAB7
:1040000003F3034AD35CD84008BD00BF0038024028
:10401000D0A1000808B5FFF7DFFF084B9B6803F449
:1040200060424FF4604393FAA3F3B3FA83F322FAA6
:1040300003F3034AD35CD84008BD00BF00380240F8
:10404000D0A100080F2303600B4B9A6802F0030213
:1040500042609A6802F0F00282609A6802F4E052CC
:10406000C2609B68DB0803F4E0530361034B1B68E9
:1040700003F00F030B60704700380240003C024021
:10408000002800F0C38010B504460368604A9342DC
:1040900018D0A2F57842934214D002F58062934280
:1040A00010D002F5784293420CD002F5E0529342D0
:1040B00008D002F58062934204D04FF488715548CD
:1040C000FCF714FD63683BB1B3F5827F04D040F286
:1040D00011115048FCF70AFDA36853B1B3F5806F86
:1040E00007D0B3F5004F04D04FF489714948FCF76D
:1040F000FDFCE368B3F5006F05D023B140F2131166
:104100004448FCF7F3FCA369B3F5007F08D03BB14A
:10411000B3F5802F04D04FF48A713E48FCF7E6FCDB
:10412000E36993B1082B10D0102B0ED0182B0CD0B4
:10413000202B0AD0282B08D0302B06D0382B04D0C7
:1041400040F215113348FCF7D1FC236A33B1802BC0
:1041500004D04FF48B712F48FCF7C8FC636A33B16D
:10416000102B04D040F217112A48FCF7BFFC636AF9
:1041700083B9236933B1022B04D04FF48D712548E4
:10418000FCF7B4FC6369012B04D940F21B112148F0
:10419000FCF7ACFC0023A36294F8513013F0FF0F3E
:1041A00005D1002384F850302046FCF7C5FC0223DB
:1041B00084F851302268136823F0400313602168AB
:1041C0006268A3681A43E3681A4323691A43636960
:1041D0001A43A36903F400731343E2691343226A89
:1041E0001343A26A1A430A602168638B03F0040236
:1041F000636A13434B602268D36923F40063D3617D
:1042000000206065012384F8513010BD0120704703
:104210000030014028A3000870B4036A23F00103B2
:104220000362036A4268846924F073040D6844EAF7
:10423000050623F002048B6823430F4DA84204D0E7
:104240000E4CA04203D1012402E0012400E000242E
:104250005CB123F00803CD682B4323F0040322F460
:1042600040724D6915438A692A43426086614A68F3
:104270004263036270BC70470000014000040140CB
:104280002DE9F04104460E46036A23F4807303626D
:10429000056A4768C36923F073080B6848EA030896
:1042A00025F400738D6843EA0525204B984205D01C
:1042B00003F58063984203D1012302E0012300E06B
:1042C00000235BB3F36833B1082B04D041F21931FA
:1042D0001748FCF70BFCB369B3F5007F05D023B199
:1042E00041F21A311248FCF701FC7369B3F5807F83
:1042F00005D023B141F21B310D48FCF7F7FB25F443
:104300000065F36845EA032525F4806527F44057E6
:10431000736947EA0317B36947EA03176760C4F88C
:104320001C807368E3632562BDE8F08100000140F2
:1043300060A300082DE9F04104460F46036A23F408
:1043400080530362056AD0F80480C66926F4E64308
:104350000E6843EA062625F400538D6843EA0535C6
:10436000114B984205D003F58063984203D1012395
:1043700002E0012300E0002373B17B69B3F5807F85
:1043800005D023B141F25F310848FCF7AFFB28F4B8
:1043900080487B6948EA8318C4F80480E6617B683A
:1043A00023642562BDE8F0810000014060A300089D
:1043B000704700BF10B504460368234A934237D0C4
:1043C000B3F1804F34D0A2F57C42934230D002F555
:1043D000806293422CD002F58062934228D002F58D
:1043E0008062934224D002F58062934220D002F58D
:1043F000704293421CD002F57052934218D002F5DD
:104400008062934214D002F58062934210D0A2F5EC
:10441000983293420CD002F58062934208D002F5A4
:104420008062934204D04FF4B2710848FCF75EFBFF
:104430002268D36843F00103D3602268136843F015
:1044400001031360002010BD0000014060A30008BC
:10445000704700BF704700BF704700BF704700BF84
:1044600010B5044603681A6912F0020F17D0DA6813
:1044700012F0020F13D06FF002021A6101230376CB
:1044800003689B6913F0030F02D0FFF7E3FF04E01A
:10449000FFF7DEFF2046FFF7DFFF002323762368C8
:1044A0001A6912F0040F19D0DA6812F0040F15D04F
:1044B0006FF004021A610223237623689B6913F4C8
:1044C000407F03D02046FFF7C5FF05E02046FFF7F9
:1044D000BFFF2046FFF7C0FF0023237623681A6939
:1044E00012F0080F19D0DA6812F0080F15D06FF02B
:1044F00008021A61042323762368DB6913F0030F93
:1045000003D02046FFF7A6FF05E02046FFF7A0FFF7
:104510002046FFF7A1FF0023237623681A6912F0D3
:10452000100F19D0DA6812F0100F15D06FF01002CA
:104530001A61082323762368DB6913F4407F03D0D4
:104540002046FFF787FF05E02046FFF781FF204662
:10455000FFF782FF0023237623681A6912F0010F08
:1045600009D0DA6812F0010F05D06FF001021A616C
:104570002046FCF71DFA23681A6912F0800F09D053
:10458000DA6812F0800F05D06FF080021A612046C1
:1045900000F01CFC23681A6912F0400F09D0DA6899
:1045A00012F0400F05D06FF040021A612046FFF76D
:1045B00055FF23681A6912F0200F09D0DA6812F04B
:1045C000200F05D06FF020021A61204600F0FCFB9E
:1045D00010BD00BF0368454A904214D0B0F1804F2F
:1045E00013D0A2F57C42904211D002F58062904235
:1045F0000FD002F5806290420DD002F578429042D1
:104600000BD101220AE0012208E0012206E001228A
:1046100004E0012202E0012200E000221AB123F0AE
:1046200070034A681343314A90422CD0B0F1804F56
:104630002BD0A2F57C42904229D002F580629042B4
:1046400027D002F58062904225D002F57842904250
:1046500023D002F57052904221D002F58062904240
:104660001FD002F5806290421DD0A2F59832904290
:104670001BD002F58062904219D002F58062904210
:1046800017D1012216E0012214E0012212E00122DA
:1046900010E001220EE001220CE001220AE00122DA
:1046A00008E0012206E0012204E0012202E00122EA
:1046B00000E000221AB123F44073CA681343036078
:1046C0008B68C3620B688362084B984205D003F580
:1046D0008063984203D1012302E0012300E000231C
:1046E0000BB10B6903630123436170470000014074
:1046F00000286DD010B504460368364A934236D080
:10470000B3F1804F33D0A2F57C4293422FD002F513
:10471000806293422BD002F58062934227D002F54B
:104720008062934223D002F5806293421FD002F54B
:10473000704293421BD002F57052934217D002F59B
:104740008062934213D002F5806293420FD0A2F5AB
:10475000983293420BD002F58062934207D002F563
:104760008062934203D0D9211B48FCF7BFF9A368AC
:104770005BB1102B09D0202B07D0402B05D0602B2C
:1047800003D0DA211448FCF7B1F923694BB1B3F532
:10479000807F06D0B3F5007F03D0DB210E48FCF705
:1047A000A5F994F8393013F0FF0F05D1002384F8F0
:1047B00038302046FFF7FCFD022384F83930211DF4
:1047C0002068FFF707FF012384F83930002010BD6F
:1047D000012070470000014060A30008002870D04D
:1047E00010B504460368384A934237D0B3F1804F7E
:1047F00034D0A2F57C42934230D002F580629342DD
:104800002CD002F58062934228D002F58062934258
:1048100024D002F58062934220D002F57042934288
:104820001CD002F57052934218D002F58062934278
:1048300014D002F58062934210D0A2F598329342D0
:104840000CD002F58062934208D002F58062934258
:1048500004D040F2F3311D48FCF748F9A36863B176
:10486000102B0AD0202B08D0402B06D0602B04D070
:104870004FF47D711548FCF739F9236953B1B3F54D
:10488000807F07D0B3F5007F04D040F2F5310F48A8
:10489000FCF72CF994F8393013F0FF0F05D1002301
:1048A00084F838302046FCF7CDFA022384F83930FA
:1048B000211D2068FFF78EFE012384F83930002087
:1048C00010BD0120704700BF0000014060A3000838
:1048D0002DE9F04104460E46036A23F010030362FB
:1048E000056AD0F80480876927F4E6430F6843EA35
:1048F000072725F020038D6843EA0515164B9842DB
:1049000005D003F58063984203D1012302E001231F
:1049100000E00023BBB1F36833B1082B04D041F2AF
:1049200007210E48FCF7E2F825F08005F36845EA18
:10493000031525F0400528F44068736948EA8308A8
:10494000B36948EA8308C4F80480A7617368A36365
:104950002562BDE8F08100BF0000014060A30008AF
:1049600090F83830012B00F02E8170B516460D46B8
:104970000446012380F8383062B1042A0AD0082A9C
:1049800008D00C2A06D0182A04D040F64A418F4895
:10499000FCF7ACF82B68602B06D0702B04D040F6E7
:1049A0004B418A48FCF7A2F8AB6833B1022B04D024
:1049B00040F64C418548FCF799F82B6933B1042B3C
:1049C00004D040F64D418148FCF790F8022384F86A
:1049D00039300C2E00F2F080DFE816F00D00EE000A
:1049E000EE00EE005500EE00EE00EE008E00EE0050
:1049F000EE00EE00BE002368754A93422FD0B3F15B
:104A0000804F2CD0A2F57C42934228D002F58062E0
:104A1000934224D002F58062934220D002F578427E
:104A200093421CD002F57052934218D002F5806276
:104A3000934214D002F58062934210D0A2F59832CE
:104A400093420CD002F58062934208D002F5806256
:104A5000934204D040F655415C48FCF747F829469C
:104A60002068FFF7D9FB2268936943F0080393613C
:104A70002268936923F004039361226891692B698A
:104A80000B43936198E02368514A93421FD0B3F1DE
:104A9000804F1CD0A2F57C42934218D002F5806270
:104AA000934214D002F58062934210D002F578420E
:104AB00093420CD002F57052934208D0A2F5943282
:104AC000934204D040F664414048FCF70FF8294671
:104AD0002068FFF7FDFE2268936943F40063936149
:104AE0002268936923F4806393612268936929693A
:104AF00043EA012393615FE02368354A934217D06C
:104B0000B3F1804F14D0A2F57C42934210D002F54D
:104B1000806293420CD002F58062934208D002F585
:104B20007842934204D040F673412848FBF7DEFFF9
:104B300029462068FFF7A4FB2268D36943F00803E5
:104B4000D3612268D36923F00403D3612268D16959
:104B50002B690B43D3612FE023681D4A934217D082
:104B6000B3F1804F14D0A2F57C42934210D002F5ED
:104B7000806293420CD002F58062934208D002F525
:104B80007842934204D040F682411048FBF7AEFFD2
:104B900029462068FFF7CEFB2268D36943F40063FF
:104BA000D3612268D36923F48063D3612268D36917
:104BB000296943EA0123D361012384F839300020B5
:104BC00084F8380070BD0220704700BF60A3000861
:104BD0000000014038B504460D460368334A93424D
:104BE0001FD0B3F1804F1CD0A2F57C42934218D065
:104BF00002F58062934214D002F58062934210D095
:104C000002F5806293420CD002F58062934208D094
:104C100002F57042934204D04FF4CB612448FBF775
:104C200065FF2B6893B1102B10D0202B0ED0302BAA
:104C30000CD0402B0AD0502B08D0602B06D0702B04
:104C400004D040F259611A48FBF750FF6B68802B83
:104C500005D023B140F25A611548FBF747FF94F89D
:104C60003830012B1FD0012284F83820022384F829
:104C7000393021684B6823F070034B602168486825
:104C80002B6803434B6021688B6823F080038B60A3
:104C9000216888686B6803438B6084F839200020A2
:104CA00084F8380038BD022038BD00BF0000014044
:104CB00098A3000838B505460C460368404A93425D
:104CC00008D002F58062934204D04FF4D0613D4891
:104CD000FBF70CFF2368B3F5006F05D023B140F25A
:104CE00081613848FBF702FF6368B3F5806F05D038
:104CF00023B140F282613348FBF7F8FEA3686BB141
:104D0000B3F5807F0AD0B3F5007F07D0B3F5407FBD
:104D100004D040F283612B48FBF7E8FEE368FF2BE9
:104D200004D940F284612748FBF7E0FE2369B3F51C
:104D3000805F05D023B140F285612248FBF7D6FEA3
:104D400063693BB1B3F5005F04D040F286611D4852
:104D5000FBF7CCFEA369B3F5804F05D023B140F239
:104D600087611848FBF7C2FE95F83830012B24D034
:104D7000012385F83830E36823F44072A3681343B5
:104D800023F480626368134323F4006223681343AF
:104D900023F480522369134323F4005263691343BD
:104DA00023F48043A269134323F4004313432A6886
:104DB0005364002085F8380038BD022038BD00BF9C
:104DC0000000014098A30008704700BF704700BF73
:104DD0000268D36823F49073D3600268536923F0A8
:104DE00001035361202380F83A30704790F839303E
:104DF000DBB2212B2BD18368B3F5805F0FD1036A1F
:104E000002681B88C3F30803536003691BB9036A74
:104E10000233036209E0036A0133036205E00268BA
:104E2000036A591C01621B785360C38C9BB2013B1F
:104E30009BB2C3846BB90268D36823F08003D3604C
:104E40000268D36843F04003D3600020704702201B
:104E500070470020704700BF2DE9F84304464268C0
:104E6000B14B9A4204D940F68711B048FBF73EFE99
:104E7000E3683BB1B3F5005F04D040F68811AB485E
:104E8000FBF734FE236953B1B3F5806F07D0B3F558
:104E9000C06F04D040F68911A448FBF727FE636970
:104EA0004FF6F372134200D123B940F68A119F489E
:104EB000FBF71CFE21680B6923F44052E36813439F
:104EC0000B612068C36823F4164222F00C02A1682B
:104ED0002369194363691943E3690B431343C360AF
:104EE00021684B6923F44072A36913434B61E36962
:104EF000B3F5004F40F0BB80276803F1804303F512
:104F000010439F4203D003F580639F4257D1FFF7C0
:104F100081F800EB800000EB800065686D00B0FB5D
:104F2000F5F5834EA6FB05356D092D01FFF772F8E7
:104F300000EB800000EB800063685B00B0FBF3F9DE
:104F4000FFF768F800EB800000EB800063685B000F
:104F5000B0FBF3F3A6FB03235B094FF0640808FBE7
:104F60001393DB003233A6FB03235B095B0003F4DE
:104F7000F8731D44FFF74EF800EB800000EB800053
:104F800063685B00B0FBF3F9FFF744F800EB8000C7
:104F900000EB800063685B00B0FBF3F3A6FB032328
:104FA0005B0908FB13984FEAC80808F13208A6FB12
:104FB0000836C6F342163544BD60BDE8F883FFF7F6
:104FC00011F800EB800000EB800065686D00B0FB1D
:104FD000F5F5574EA6FB05356D092D01FFF702F8D3
:104FE00000EB800000EB800063685B00B0FBF3F92E
:104FF000FEF7F8FF00EB800000EB800063685B00C9
:10500000B0FBF3F3A6FB03235B094FF0640808FB36
:105010001393DB003233A6FB03235B095B0003F42D
:10502000F8731D44FEF7DEFF00EB800000EB80000C
:1050300063685B00B0FBF3F9FEF7D4FF00EB800080
:1050400000EB800063685B00B0FBF3F3A6FB032377
:105050005B0908FB13984FEAC80808F13208A6FB61
:105060000836C6F342163544BD60BDE8F8832668AD
:10507000304B9E4203D003F580639E425CD1FEF725
:10508000C9FF00EB800000EB80006568AD00B0FB5D
:10509000F5F5274FA7FB05356D092D01FEF7BAFF82
:1050A00000EB800000EB800063689B00B0FBF3F82E
:1050B000FEF7B0FF00EB800000EB800063689B0010
:1050C000B0FBF3F3A7FB03235B094FF0640909FB73
:1050D00013831B013233A7FB03235B0903F0F003A7
:1050E0001D44FEF797FF00EB800000EB8000636833
:1050F0009B00B0FBF3F8FEF78DFF00EB800000EBA8
:10510000800063689B00B0FBF3F3A7FB03235B09FC
:1051100009FB13831B013233A7FB0323C3F34313A0
:105120001D44B560BDE8F883A037A000D4A30008F3
:105130001F85EB5100100140FEF754FF00EB80008B
:1051400000EB80006568AD00B0FBF5F5254FA7FBCF
:1051500005356D092D01FEF745FF00EB800000EBE2
:10516000800063689B00B0FBF3F8FEF73BFF00EBA9
:10517000800000EB800063689B00B0FBF3F3A7FBAB
:1051800003235B094FF0640909FB13831B013233CE
:10519000A7FB03235B0903F0F0031D44FEF722FF86
:1051A00000EB800000EB800063689B00B0FBF3F82D
:1051B000FEF718FF00EB800000EB800063689B00A7
:1051C000B0FBF3F3A7FB03235B0909FB13831B016C
:1051D0003233A7FB0323C3F343131D44B560BDE87B
:1051E000F88300BF1F85EB51002800F0908010B5B8
:1051F000044683692BB30368464A934210D0A2F554
:105200004C4293420CD002F58062934208D002F5E2
:105210004C42934204D04FF481713F48FBF766FC47
:10522000A3699BB3B3F5807F30D0B3F5007F2DD059
:10523000B3F5407F2AD040F203113748FBF756FC04
:1052400024E00368334A934220D0A2F54C429342B3
:105250001CD002F58062934218D002F5806293421E
:1052600014D002F58062934210D002F5444293427A
:105270000CD0A2F51C42934208D002F58062934202
:1052800004D040F207112448FBF730FCA3683BB17F
:10529000B3F5805F04D040F209111F48FBF726FCEC
:1052A000E3693BB1B3F5004F04D04FF485711A4860
:1052B000FBF71CFC94F8393013F0FF0F05D10023E5
:1052C00084F838302046FCF74BF9242384F8393031
:1052D0002268D36823F40053D3602046FFF7BCFD57
:1052E0002268136923F4904313612268536923F001
:1052F0002A0353612268D36843F40053D36000202B
:10530000E063202384F8393084F83A3010BD01205E
:10531000704700BF00100140D4A30008704700BFD1
:1053200008B50168CB6823F04003CB60202380F8E8
:105330003930FFF7F3FF002008BD00BF704700BF02
:1053400008B590F83A30DBB2222B3FD18368B3F531
:10535000805F13D1826A036943B903685B68C3F352
:1053600008031380836A0233836218E003685B6872
:10537000DBB21380836A0133836210E0036933B9BF
:10538000836A5A1C8262026852681A7007E0826A55
:10539000531C836203685B6803F07F031370C38D43
:1053A0009BB2013B9BB2C38593B90268D36823F4D7
:1053B0009073D3600268536923F001035361202383
:1053C00080F83A30FFF7BAFF002008BD022008BD80
:1053D000002008BD704700BF10B50446026813687E
:1053E000D168526913F00F0009D113F0200F06D0D5
:1053F00011F0200F03D02046FFF7A2FF10BD0028B8
:1054000062D012F0010202D111F4907F5CD013F04F
:10541000010F06D011F4807F03D0E06B40F0010053
:10542000E06313F0040F04D01AB1E06B40F0020007
:10543000E06313F0020F04D01AB1E06B40F00400F7
:10544000E06313F0080F04D01AB1E26B42F00802D7
:10545000E263E26B002A4AD013F0200F05D011F06E
:10546000200F02D02046FFF76BFF23685B6903F033
:105470004003E26B12F0080F00D1FBB12046FFF7AA
:10548000A7FC23685A6912F0400F13D05A6922F022
:1054900040025A61636B4BB1154A1A65606BFDF7A8
:1054A00097FE20B3606B036D984710BD2046FFF751
:1054B00091FF10BD2046FFF78DFF10BD2046FFF77E
:1054C00089FF0023E36310BD13F0800F06D011F0B5
:1054D000800F03D02046FFF789FC10BD13F0400F6A
:1054E00005D011F0400F02D02046FFF719FF10BD84
:1054F000F554000808B5806B0023C385C384FFF70B
:1055000069FF08BD81F0004102E000BF83F0004365
:1055100030B54FEA41044FEA430594EA050F08BF4E
:1055200090EA020F1FBF54EA000C55EA020C7FEA12
:10553000645C7FEA655C00F0E2804FEA5454D4EB8F
:105540005555B8BF6D420CDD2C4480EA020281EA59
:10555000030382EA000083EA010180EA020281EA91
:105560000303362D88BF30BD11F0004F4FEA0131E3
:105570004FF4801C4CEA113102D0404261EB4101F2
:1055800013F0004F4FEA03334CEA133302D0524278
:1055900063EB430394EA050F00F0A780A4F1010434
:1055A000D5F1200E0DDB02FA0EFC22FA05F280186E
:1055B00041F1000103FA0EF2801843FA05F3594154
:1055C0000EE0A5F120050EF1200E012A03FA0EFCD3
:1055D00028BF4CF0020C43FA05F3C01851EBE371FD
:1055E00001F0004507D54FF0000EDCF1000C7EEB1A
:1055F00000006EEB0101B1F5801F1BD3B1F5001F58
:105600000CD349085FEA30004FEA3C0C04F1010476
:105610004FEA445212F5800F80F09A80BCF1004F9F
:1056200008BF5FEA500C50F1000041EB045141EA21
:10563000050130BD5FEA4C0C404141EB010111F422
:10564000801FA4F10104E9D191F0000F04BF0146CD
:105650000020B1FA81F308BF2033A3F10B03B3F1AB
:1056600020020CDA0C3208DD02F1140CC2F10C023B
:1056700001FA0CF021FA02F10CE002F11402D8BF99
:10568000C2F1200C01FA02F120FA0CFCDCBF41EA65
:105690000C019040E41AA2BF01EB0451294330BD34
:1056A0006FEA04041F3C1CDA0C340EDC04F1140411
:1056B000C4F1200220FA04F001FA02F340EA0300E8
:1056C00021FA04F345EA030130BDC4F10C04C4F12E
:1056D000200220FA02F001FA04F340EA030029460E
:1056E00030BD21FA04F0294630BD94F0000F83F458
:1056F000801306BF81F480110134013D4EE77FEA3B
:10570000645C18BF7FEA655C29D094EA050F08BF86
:1057100090EA020F05D054EA000C04BF1946104667
:1057200030BD91EA030F1EBF0021002030BD5FEAAB
:10573000545C05D14000494128BF41F0004130BDD3
:1057400014F580043CBF01F5801130BD01F0004527
:1057500045F0FE4141F470014FF0000030BD7FEA9A
:10576000645C1ABF194610467FEA655C1CBF0B4695
:10577000024650EA013406BF52EA033591EA030FAC
:1057800041F4002130BD00BF90F0000F04BF0021A4
:10579000704730B54FF4806404F132044FF00005D7
:1057A0004FF0000150E700BF90F0000F04BF002150
:1057B000704730B54FF4806404F1320410F00045B6
:1057C00048BF40424FF000013EE700BF42004FEAB1
:1057D000E2014FEA31014FEA02701FBF12F07F432E
:1057E00093F07F4F81F06051704792F0000F14BF2B
:1057F00093F07F4F704730B54FF4607401F000456F
:1058000021F0004120E700BF50EA010208BF7047C5
:1058100030B54FF000050AE050EA010208BF7047BA
:1058200030B511F0004502D5404261EB41014FF423
:10583000806404F132045FEA915C3FF4DCAE4FF027
:1058400003025FEADC0C18BF03325FEADC0C18BF0E
:10585000033202EBDC02C2F1200300FA03FC20FA5F
:1058600002F001FA03FE40EA0E0021FA02F11444AC
:10587000C1E600BF70B54FF0FF0C4CF4E06C1CEAC1
:1058800011541DBF1CEA135594EA0C0F95EA0C0F36
:1058900000F0DEF82C4481EA030621EA4C5123EAA9
:1058A0004C5350EA013518BF52EA033541F48011D8
:1058B00043F4801338D0A0FB02CE4FF00005E1FB8B
:1058C00002E506F00042E0FB03E54FF00006E1FBD5
:1058D00003569CF0000F18BF4EF0010EA4F1FF0418
:1058E000B6F5007F64F5407404D25FEA4E0E6D4158
:1058F00046EB060642EAC62141EA55514FEAC52069
:1059000040EA5E504FEACE2EB4F1FD0C88BFBCF5E4
:10591000E06F1ED8BEF1004F08BF5FEA500E50F195
:10592000000041EB045170BD06F0004646EA01015B
:1059300040EA020081EA0301B4EB5C04C2BFD4EB8D
:105940000C0541EA045170BD41F480114FF0000E86
:10595000013C00F3AB8014F1360FDEBF002001F0F4
:10596000004170BDC4F10004203C35DA0C341BDC6E
:1059700004F11404C4F1200500FA05F320FA04F040
:1059800001FA05F240EA020001F0004221F0004174
:1059900010EBD37021FA04F642EB06015EEA430EE7
:1059A00008BF20EAD37070BDC4F10C04C4F1200517
:1059B00000FA04F320FA05F001FA04F240EA0200CA
:1059C00001F0004110EBD37041F100015EEA430E9B
:1059D00008BF20EAD37070BDC4F1200500FA05F2BB
:1059E0004EEA020E20FA04F301FA05F243EA02033A
:1059F00021FA04F001F0004121FA04F220EA020049
:105A000000EBD3705EEA430E08BF20EAD37070BD8E
:105A100094F0000F0FD101F00046400041EB01016E
:105A200011F4801F08BF013CF7D041EA060195F050
:105A3000000F18BF704703F00046520043EB03030A
:105A400013F4801F08BF013DF7D043EA06037047F7
:105A500094EA0C0F0CEA135518BF95EA0C0F0CD002
:105A600050EA410618BF52EA4306D1D181EA030148
:105A700001F000414FF0000070BD50EA410606BF42
:105A80001046194652EA430619D094EA0C0F02D187
:105A900050EA013613D195EA0C0F05D152EA0336CC
:105AA0001CBF104619460AD181EA030101F00041EA
:105AB00041F0FE4141F470014FF0000070BD41F033
:105AC000FE4141F4780170BD70B54FF0FF0C4CF40D
:105AD000E06C1CEA11541DBF1CEA135594EA0C0F2C
