:020000040800F2
:1000000000000320C1020008690C00086D0C000804
:10001000710C0008750C0008790C00080000000045
:10002000000000000000000000000000911A00081D
:100030007D0C000800000000311B0008810C000846
:10004000C5030008C5030008C5030008C503000870
:10005000C5030008C5030008C5030008C503000860
:10006000C5030008C5030008C5030008C503000850
:10007000890C0008C5030008C5030008C503000873
:10008000990C0008C5030008C5030008A90C000866
:10009000B90C0008C5030008C5030008C503000823
:1000A000C5030008C5030008C5030008C503000810
:1000B000C5030008C5030008C5030008C503000800
:1000C000C5030008C5030008C5030008C5030008F0
:1000D000C5030008C90C0008D90C0008E90C000889
:1000E000C5030008C5030008C5030008C5030008D0
:1000F000C5030008C5030008C5030008C5030008C0
:10010000C5030008C5030008C5030008C5030008AF
:10011000C5030008C5030008F90C0008C503000862
:10012000C5030008090D0008190D0008C5030008E3
:10013000C5030008C5030008C5030008290D000811
:10014000390D0008C5030008C5030008C5030008F1
:10015000C5030008C5030008C5030008490D0008D1
:10016000C5030008C5030008C5030008C50300084F
:10017000C5030008C5030008C5030008000000000F
:10018000C5030008C5030008C5030008C50300082F
:10019000C5030008C5030008C5030008C50300081F
:1001A0000000000000000000C503000800B583B097
:1001B00000F092F9304B314A1360314A1360314BF1
:1001C000314A03E011681960043304322F498B422D
:1001D000F8D32A4B1A682E4B9A4204D1284B1A683E
:1001E0002C4B9A4200D0FEE7234B2B4A13602B4A3C
:1001F00013602B4B02E000221A600433294A934219
:10020000F9D3254B1B6813B9244B1B6803B1FEE7D8
:1002100000F074F9694601A800F056F9224C234B0E
:100220001C1BA410002504E01F4B53F825309847F1
:100230000135AC42F8DC1E4C1E4B1C1BA4100025E3
:1002400004E01B4B53F8253098470135AC42F8DCED
:100250000099019800F022FC0546174C174B1C1B17
:10026000A41004E0013C144B53F824309847002CB0
:10027000F8DC284600F004F9BABADECA0000002013
:10028000C00900200000002098A40008C409002034
:100290007856341232547698C4090020E44C002079
:1002A000C4090020E84C0020F0030008F003000817
:1002B000F0030008F0030008F0030008F003000852
:1002C00008B5FFF773FF00BF00BEFEE71EF0040F86
:1002D0000CBFEFF30880EFF309807146364A1047F0
:1002E0002DE9F04182B004468846084B5E6B9F6B57
:1002F0009D6A074800F084F8CDF800803B463246FE
:100300002946204600F0FEF800BEFEE700ED00E0C2
:10031000409F000800BEFEE71EF0040F0CBFEFF385
:100320000880EFF309807146244A10472DE9F04117
:1003300082B004468846084B5E6B9F6B9D6A0748F7
:1003400000F05EF8CDF800803B4632462946204654
:1003500000F0D8F800BEFEE700ED00E0509F000876
:100360001EF0040F0CBFEFF30880EFF30980714615
:10037000134A10472DE9F04182B004468846084BE5
:100380005E6B9F6B9D6A074800F03AF8CDF80080DD
:100390003B4632462946204600F0B4F800BEFEE750
:1003A00000ED00E05C9F000800BEFEE700BEFEE737
:1003B00000BEFEE770470000E10200082D030008C0
:0803C0007503000800BEFEE712
:1003C80098A4000800000020C409002098A4000890
:1003D8000000001000000010C4090020E84C0020B4
:0803E8000000001000000010ED
:100400000FB400B583B004AB53F8042B01938021E3
:10041000064805F01DF9002803DD0146034800F0F9
:100420002BF803B05DF804EB04B07047C809002056
:1004300010B400221AE04FF06043D3F8803E13F06E
:10044000010F06D04FF06043D3F8003E13F0010FC8
:1004500001D110460DE04FF060431B68002BFAD02D
:1004600004784FF060431C70013201308A42E2D3BD
:1004700008465DF8044B704708B5FFF7D9FF08BD83
:10048000FEE700BF08B50D4B1B6813B90C4A0B4BB8
:100490001A600A4B1A68C31C23F00303134409496A
:1004A0008B4206D904F036FF0C2303604FF0FF3077
:1004B00008BD02490B60104608BD00BF480A002075
:1004C000E84C002000FC022001230360014B0B607C
:1004D000704700BF0400002008B500F03DFC054B4C
:1004E000054A9A60D3F8882042F47002C3F8882045
:1004F00008BD00BF00ED00E00000000808B500F0F6
:1005000051FC08BDF8B504460D4617461E46264860
:10051000FFF776FF21682548FFF772FF61682448DE
:10052000FFF76EFFA1682348FFF76AFFE1682248E2
:10053000FFF766FF21692148FFF762FF61692048E4
:10054000FFF75EFFA1691F48FFF75AFFE1691E48E8
:10055000FFF756FF1D48FFF753FF29461C48FFF7DA
:100560004FFF1C4CE16A1C48FFF74AFF216B1B48F8
:10057000FFF746FFE16B1A48FFF742FF15F0800FC7
:1005800003D039461748FFF73BFF15F4004F03D05F
:1005900031461548FFF734FF1448FFF731FF06993D
:1005A0001348FFF72DFFF8BD249E0008349E000875
:1005B000449E0008549E0008649E0008749E000833
:1005C000849E0008949E0008A49E0008B49E000823
:1005D000C09E000800ED00E0D09E0008E09E0008EC
:1005E000F09E0008009F0008109F0008209F000850
:1005F000289F000808B50E480E4B03600523436092
:1006000000238360C3604FF4003202614FF4800224
:10061000426183610122C261036243628362C362F9
:1006200001F07EFF18B15021034800F0CBF908BD5E
:100630001C480020006400406C9F000808B50F486B
:100640000F4B036005234360002383604FF040722B
:10065000C2604FF4003202614FF480024261836154
:100660000122C261036243628362C36201F058FFE8
:1006700018B16621034800F0A5F908BDD84700204D
:10068000006800406C9F000810B588B003683A4AC3
:1006900093422FD1394A136801331360012B0BD1D8
:1006A00000230093364B1A6C42F000721A641B6CE4
:1006B00003F000730093009B032303930222049230
:1006C0000024059406930923079303A92D4802F0FB
:1006D0008BFD22460521132002F058FA132002F068
:1006E00097FA22460521142002F050FA142002F055
:1006F0008FFA3FE0244A93423CD100230193204BE0
:100700001A6C42F080621A641B6C03F080630193E0
:10071000019B1A4A136801331360012B0BD100238C
:100720000293174B1A6C42F000721A641B6C03F0B0
:1007300000730293029B4FF44053039302230493EC
:1007400000240594032306930923079303A90F4864
:1007500002F04AFD224621463F2002F017FA3F20D0
:1007600002F056FA22462146402002F00FFA4020BD
:1007700002F04EFA08B010BD00640040500A00209C
:1007800000380240000C02400068004000040240B3
:1007900010B582B0002400941A4B1A6B42F4800208
:1007A0001A631A6B02F480020092009A01941A6B89
:1007B00042F400121A631B6B03F400130193019BB4
:1007C000224605210C2002F0E1F90C2002F020FA6B
:1007D00022460521102002F0D9F9102002F018FA63
:1007E00022460521392002F0D1F9392002F010FA11
:1007F000224605213A2002F0C9F93A2002F008FA0F
:1008000002B010BD0038024008B5012001F08AFA9C
:10081000FBE700BF30B587B001AC064D0FCD0FC46C
:100820002B682360002101A801F062FA024B1860D6
:1008300007B030BD7C9F0008604800202DE9F041E2
:100840008EB000240194524B1A6B42F010021A63CE
:100850001A6B02F010020192019A02941A6B42F094
:1008600002021A631A6B02F002020292029A0394C5
:100870001A6B42F040021A631A6B02F040020392B4
:10088000039A04941A6B42F008021A631A6B02F07E
:1008900008020492049A05941A6B42F001021A634A
:1008A0001A6B02F001020592059A06941A6B42F443
:1008B00080721A631A6B02F480720692069A079489
:1008C0001A6B42F080021A631A6B02F080020792E0
:1008D000079A08941A6B42F020021A631B6B03F00C
:1008E00020030893089B2B4E22468821304602F0B5
:1008F0002FFE01220421304602F02AFEDFF8AC80F0
:1009000022464FF40051404602F022FE224F22467A
:1009100044F24001384602F01BFE8C230993012566
:100920000A950B940C9409A9304602F05DFC022351
:1009300009931A4B0A930B9509A9304602F054FC0F
:100940004FF4005309930A950B940C9409A940465F
:1009500002F04AFC802309930A940B9409A91048D9
:1009600002F042FC44F2400309930A950B940C9464
:1009700009A9384602F038FC0D230993094B0A9364
:100980000B9409A9084802F02FFC0EB0BDE8F081D5
:100990000038024000100240001402400000211004
:1009A000000C02400000111000000240001802403C
:1009B00008B50268024B9A4201D101F0A3FD08BDBF
:1009C00000100040FEE700BF00B595B00021019186
:1009D0002E4B1A6C42F080521A641B6C03F0805349
:1009E0000193019B02912A4B1A6842F440421A601B
:1009F0001B6803F440430293029B012308934FF4C6
:100A00008033099302230E934FF480020F92062243
:100A10001092B422119212930423139308A802F0A7
:100A200003FE18B1AE211B48FFF7CCFF02F0AAFD70
:100A300018B1B5211748FFF7C5FF0F230393022311
:100A40000493002305934FF4A05306934FF480536F
:100A50000793052103A803F095F818B1C3210D48A9
:100A6000FFF7B0FF03F0C0F90B4BA3FB0030800988
:100A700002F0E4F8042002F0F7F800220F214FF012
:100A8000FF3002F083F815B05DF804FB0038024037
:100A9000007000409C9F0008D34D621008B501F023
:100AA00017FDFFF791FFFFF7C9FEFFF771FEFFF794
:100AB000A1FD00F0DBFC00F01BF800F015FD00F0DC
:100AC00031FDFFF7BBFD00F0BFFB00F0CBFA00F0FB
:100AD0001FFB00F061FB00F015FC00F087FC00F04C
:100AE000E5FCFFF797FE01F0FDF8FEE7704700BF59
:100AF00008B50E480E4B03604FF482734360002329
:100B00008360C360036143614FF4007282613022ED
:100B1000C2610362436283620A23C36203F0B8F9CD
:100B200018B14F210348FFF74DFF08BD644800206E
:100B300000500140AC9F00080268124B9A421FD13E
:100B400000B587B00021009103F568435A6C42F468
:100B500080125A645B6C03F480130093009B4FF483
:100B600060730193022302930391032304930523EB
:100B7000059301A9044802F037FB07B05DF804FBB8
:100B8000704700BF005001400014024008B5032028
:100B900001F0DEFF002211466FF00B0001F0F6FFBE
:100BA000002211466FF00A0001F0F0FF002211460A
:100BB0006FF0090001F0EAFF002211466FF0040017
:100BC00001F0E4FF002211466FF0030001F0DEFFA8
:100BD00000220F216FF0010001F0D8FF00220F2149
:100BE0004FF0FF3001F0D2FF08BD00BF10B588B054
:100BF00000220146362001F0C9FF362002F008F835
:100C000000240194144B1A6C42F010021A641B6CFD
:100C100003F010030193019B02A903A803F01AF942
:100C200003F0E8F840000D4BA3FB00239B0C013BB5
:100C30000B480C4A026040F2E732C2604360046134
:100C4000846003F05DFC18B9054803F0BBFA00E0CE
:100C5000012008B010BD00BF0038024083DE1B43F6
:100C6000BC48002000100040704700BFFEE700BFF6
:100C7000FEE700BFFEE700BFFEE700BF704700BF12
:100C800008B501F057F808BD08B5024802F0BCF9F4
:100C900008BD00BF204B002008B5024802F0B4F99F
:100CA00008BD00BF604A002008B5024801F056FEAA
:100CB00008BD00BF1C48002008B5024801F04EFEE8
:100CC00008BD00BF1C48002008B5024804F08CFA9B
:100CD00008BD00BF204C002008B5024804F084FA8B
:100CE00008BD00BFA04C002008B5024804F07CFA03
:100CF00008BD00BF804B002008B5024803F0B8FAD9
:100D000008BD00BFBC48002008B5024802F07CF9CD
:100D100008BD00BFC04A002008B5024802F074F9BF
:100D200008BD00BFC04B002008B5024801F016FE08
:100D300008BD00BFD847002008B5024801F00EFEEC
:100D400008BD00BFD847002008B5024804F04CFA9F
:100D500008BD00BF604C00200F49D1F8883043F433
:100D60007003C1F888300D4B1A6842F001021A6016
:100D7000002098601A6822F0847222F480321A608F
:100D8000074A5A601A6822F480221A60D8604FF02D
:100D900000638B60704700BF00ED00E00038024048
:100DA00010300024224B9B6803F00C03042B07D067
:100DB000082B09D0002B2DD11E4A1F4B1A602CE0A6
:100DC0001E4A1D4B1A6028E0194B5A685B6803F0F5
:100DD0003F0312F4800F09D0184AB2FBF3F2144B10
:100DE0005B68C3F3881303FB02F208E0114AB2FB0D
:100DF000F3F30F4A5168C1F3881101FB03F20C4B66
:100E00005B68C3F3014301335B00B2FBF3F30A4AAF
:100E1000136002E0074A084B1A60054B9B68C3F356
:100E20000313074AD15C044A1368CB401360704730
:100E3000003802400024F4000C000020001BB70022
:100E4000BC9F000886B00368B3F1804F0CD100232B
:100E500000932E4B1A6C42F001021A641B6C03F0D3
:100E600001030093009B4EE0294A93420CD10023DA
:100E70000193264B1A6C42F002021A641B6C03F0B9
:100E800002030193019B3EE0224A93420CD10023CE
:100E900002931E4B1A6C42F004021A641B6C03F09E
:100EA00004030293029B2EE01B4A93420CD10023C1
:100EB0000393164B1A6C42F008021A641B6C03F081
:100EC00008030393039B1EE0144A93420CD10023B2
:100ED00004930E4B5A6C42F002025A645B6C03F0AE
:100EE00002030493049B0EE00D4A93420BD10023AE
:100EF0000593064B1A6C42F040021A641B6C03F017
:100F000040030593059B06B0704700BF00380240C0
:100F10000004004000080040000C004000040140B4
:100F20000018004070B586B00368B3F1804F19D146
:100F300040F6084301930226029600240394049489
:100F40000125059501A93D4802F04EF94FF40043F3
:100F50000193029603940494059501A9384802F080
:100F600043F968E0374A93420CD1302301930223BE
:100F70000293002203920492059301A92F4802F0E4
:100F800033F958E0304A934218D14FF4407301933B
:100F900002240294002503950495059401A927488D
:100FA00002F022F94FF44053019302940395049503
:100FB000059401A9254802F017F93CE0244A934220
:100FC00017D101230193022402940025039504956F
:100FD000059401A91F4802F007F94FF4E05301936B
:100FE000029403950495059401A91B4802F0FCF8AE
:100FF00021E01A4A93420DD1E42301930223029384
:101000000023039304930323059301A9114802F0DD
:10101000EBF810E0124A93420DD14FF41073019394
:10102000022302930023039304930923059301A948
:10103000094802F0D9F806B070BD00BF00040240B4
:10104000000002400004004000080040000C024084
:10105000000C004000200240001C0240000401403F
:101060000018004000B58BB027484FF08043036064
:10107000002343608360C360036103F0B7FA18B1D3
:101080004D212248FFF79EFC00230893099308A9ED
:101090001D4803F0A7FC18B154211C48FFF792FC2F
:1010A00060230193002202920392059201A916483F
:1010B00003F05EFB18B15D211448FFF783FC0422A6
:1010C0000DEB0201104803F053FB18B162210F48E9
:1010D000FFF778FC082201A90B4803F049FB18B17F
:1010E00067210A48FFF76EFC0C2201A9064803F0AD
:1010F0003FFB18B16C210548FFF764FC0248FFF77D
:1011000011FF0BB05DF804FBE8490020D49F0008F4
:1011100000B58BB01D481E4B0360B3234360002312
:101120008360C360036103F061FA18B17F2119483D
:10113000FFF748FC00230893099308A9134803F01C
:1011400051FC18B186211348FFF73CFC6023019342
:10115000002202920392059201A90C4803F008FBB9
:1011600018B18F210B48FFF72DFC04220DEB020173
:10117000064803F0FDFA18B194210648FFF722FC57
:101180000248FFF7CFFE0BB05DF804FBAC4900202E
:1011900000040040D49F000800B58BB02748284BBE
:1011A0000360002343608360C360036103F01EFAA1
:1011B00018B1A7212348FFF705FC002308930993E2
:1011C00008A91E4803F00EFC18B1AE211D48FFF718
:1011D000F9FB60230193002202920392059201A978
:1011E000164803F0C5FA18B1B7211648FFF7EAFB15
:1011F00004220DEB0201114803F0BAFA18B1BC2128
:101200001048FFF7DFFB082201A90C4803F0B0FAF1
:1012100018B1C1210B48FFF7D5FB0C2201A90748E3
:1012200003F0A6FA18B1C6210648FFF7CBFB034826
:10123000FFF778FE0BB05DF804FB00BF34490020D7
:1012400000080040D49F000800B58BB02A482B4B03
:101250000360592343600023836040F6C312C260D9
:10126000036103F0C3F918B1D9212548FFF7AAFBA0
:1012700000230893099308A91F4803F0B3FB18B192
:10128000E0211F48FFF79EFB602301934FF47A7320
:10129000029300220392059201A9174803F068FA0D
:1012A00018B1E9211648FFF78DFB04220DEB02016E
:1012B000114803F05DFA18B1EE211148FFF782FBE7
:1012C00000230293082201A90B4803F051FA18B138
:1012D000F4210B48FFF776FB0C2201A9064803F026
:1012E00047FA18B1F9210648FFF76CFB0248FFF7EF
:1012F00019FE0BB05DF804FB70490020000C0040A3
:10130000D49F000800B591B03548364B03600023E8
:1013100043608360C3600361436103F067F920B1F8
:101320004FF487713048FFF74DFB00230E930F9366
:101330000EA92B4803F056FB20B140F215112A48A4
:10134000FFF740FB602307930022089209920A925C
:101350000B920C920D9207A9214803F009FA20B1D3
:1013600040F221112048FFF72DFB042207A91C4859
:1013700003F0FEF920B14FF493711B48FFF722FBF5
:10138000082207A9164803F0F3F920B140F22B1107
:101390001548FFF717FB0C2207A9114803F0E8F9DD
:1013A00020B14FF498711048FFF70CFB0023009315
:1013B00001930293039304934FF400520592069312
:1013C0006946074803F07EFB20B14FF49E71064842
:1013D000FFF7F8FA0248FFF7A5FD11B05DF804FB2E
:1013E000F848002000040140D49F000800B589B0EF
:1013F0001B481C4B0360592343600023836040F665
:10140000C312C260036103F0F1F820B14FF4A77179
:101410001548FFF7D7FA602301934FF47A730293CC
:1014200000220392059201A90D4803F0A1F920B111
:1014300040F257110C48FFF7C5FA04220DEB0201E8
:10144000074803F095F920B14FF4AE710648FFF755
:10145000B9FA0348FFF766FD09B05DF804FB00BF69
:10146000244A002000180040D49F000808B50B480B
:101470000B4B03600B4B436000238360C3604FF44E
:10148000806202610C2242618361C36103F0B4FD9A
:1014900018B154210448FFF795FA08BD204C0020EC
:1014A00000100140A0860100E49F000808B50B4829
:1014B0000B4B03604FF4E133436000238360C36050
:1014C00003610C2242618361C36103F095FD18B191
:1014D00067210448FFF776FA08BD00BFA04C002042
:1014E00000440040E49F000808B50B480B4B036024
:1014F0004FF4E133436000238360C36003610C2237
:1015000042618361C36103F077FD18B17A21044819
:10151000FFF758FA08BD00BF804B0020004800408C
:10152000E49F000808B50B480B4B03604FF4E13310
:10153000436000238360C36003610C2242618361C6
:10154000C36103F059FD18B18D210448FFF73AFA41
:1015500008BD00BF604C002000140140E49F00085B
:1015600030B58BB004460368824A93423CD10025D3
:101570000195814B5A6C42F010025A645B6C03F087
:1015800010030193019BC0230593022306930123BB
:101590000793032308930723099305A9774801F0CC
:1015A00023FE7748774B03604FF00063436085600C
:1015B000C5604FF48063036145618561C561056263
:1015C000456201F0D3FB18B1B7216F48FFF7FAF974
:1015D0006B4B63639C6300220521252001F0D6FA42
:1015E000252001F015FBC2E0684A93423CD100255A
:1015F0000295614B1A6C42F400321A641B6C03F4BE
:1016000000330293029B6023059302230693012378
:101610000793032308930723099305A95C4801F066
:10162000E3FD5C485C4B03604FF000634360856002
:10163000C5604FF48063036145618561C5610562E2
:10164000456201F093FB18B1E4214F48FFF7BAF966
:10165000504B63639C6300221146262001F096FAEA
:10166000262001F0D5FA82E04C4A93423ED1002573
:101670000395414B1A6C42F480221A641B6C03F4EC
:1016800080230393039B4FF4407305930223069337
:1016900001230793032308930723099305A93C48D3
:1016A00001F0A2FD3E483F4B03604FF000634360F2
:1016B0008560C5604FF48063036145618561C561E4
:1016C0000562456201F052FB20B140F211112E4833
:1016D000FFF778F9324B63639C63002211462720A1
:1016E00001F054FA272001F093FA40E02E4A934289
:1016F0003DD100250495204B5A6C42F020025A64DB
:101700005B6C03F020030493049B4FF48443059324
:1017100002230693012307930323089308230993C5
:1017200005A9224801F060FD2148224B03604FF0DB
:10173000206343608560C5604FF480630361456149
:101740008561C5610562456201F010FB20B14FF46F
:101750009F710D48FFF736F9154B63639C630022B8
:101760000521472001F012FA472001F051FA0BB091
:1017700030BD00BF001001400038024000040240AC
:10178000C04B002040640240E49F00080044004039
:10179000000C0240604A002088600240004800407F
:1017A000204B002028600240001401400018024035
:1017B000C04A002028640240124A12F0070F07D0E6
:1017C000D11D21F00701C1F5705313440A4601E011
:1017D0004FF470530C480260002141601344083BF1
:1017E00023F007030948036059601960991A516092
:1017F0001360074B1960074B19604FF00042064B0E
:101800001A607047640A00205C0A0020580A002011
:1018100068460020540A002064460020134B00E074
:1018200013461A688242FBD310B45C6819198842C7
:1018300003D14168214459601846446801198A421D
:101840000CD10B4909688A4206D052682244426092
:101850001A681268026002E0016000E002609842CB
:1018600000D018605DF8044B704700BF5C0A002090
:10187000580A002070B5044600F054FC394B1B6830
:101880000BB9FFF799FF384B1B681C4253D194B139
:10189000083414F0070F0ED024F00704083404F0C5
:1018A000070343B14FF0500383F31188BFF36F8FE9
:1018B000BFF34F8FFEE7002C3FD02C4B1B689C42A0
:1018C0003DD82B4B1D6801E02B4615466A689442B3
:1018D00002D92A68002AF7D1224A1268954230D0EC
:1018E0001E6808362A681A606B681B1B102B10D9FB
:1018F000281910F0070F08D04FF0500383F3118818
:10190000BFF36F8FBFF34F8FFEE743606C60FFF74D
:1019100085FF6A6815490B689B1A0B6015490968B1
:101920008B4201D213490B600F4B1B681A436A604C
:1019300000232B6006E0002604E0002602E00026DB
:1019400000E0002600F088FC16F0070F08D04FF0EA
:10195000500383F31188BFF36F8FBFF34F8FFEE700
:10196000304670BD580A002064460020540A00200A
:101970005C0A002068460020A0B338B50346A0F1F9
:10198000080550F8042C1849096812EA010408D126
:101990004FF0500383F31188BFF36F8FBFF34F8F66
:1019A000FEE750F8080C40B14FF0500383F3118864
:1019B000BFF36F8FBFF34F8FFEE794B188B91C461A
:1019C00022EA010243F8042C00F0ACFB54F8043C7A
:1019D000064A11680B4413602846FFF71FFF00F00A
:1019E0003BFC38BD704700BF64460020540A00200D
:1019F0000B4B1B68B3F1FF3F08D04FF0500383F34C
:101A00001188BFF36F8FBFF34F8FFEE74FF0500386
:101A100083F31188BFF36F8FBFF34F8FFEE700BFD3
:101A20001000002006480068006880F3088862B64D
:101A300061B6BFF34F8FBFF36F8F00DF00BF0000B1
:101A400008ED00E0DFF80C00016841F4700101606E
:101A50007047000088ED00E04FF0807340F8043CD0
:101A600021F0010140F8081C054B40F80C3C40F8FF
:101A7000202C6FF0020340F8243C4438704700BF2C
:101A8000F119000800000000000000000000000044
:101A9000074B19680868B0E8F04F80F30988BFF376
:101AA0006F8F4FF0000080F311887047AFF3008014
:101AB000344700204FF0500383F31188BFF36F8F3A
:101AC000BFF34F8F0A4A136801331360012B0DD106
:101AD000084B1B6813F0FF0F08D04FF0500383F33F
:101AE0001188BFF36F8FBFF34F8FFEE7704700BFC2
:101AF0001000002004ED00E0094B1B6843B94FF0D3
:101B0000500383F31188BFF36F8FBFF34F8FFEE74E
:101B1000013B034A13600BB983F31188704700BF80
:101B20001000002000000000000000000000000085
:101B3000EFF30980BFF36F8F154B1A681EF0100F7B
:101B400008BF20ED108A20E9F04F10604DF8043DE9
:101B50004FF0500080F31188BFF34F8FBFF36F8FAA
:101B600000F05CFC4FF0000080F3118808BC19689D
:101B70000868B0E8F04F1EF0100F08BFB0EC108AF4
:101B800080F30988BFF36F8F704700BFAFF3008009
:101B90003447002008B54FF0500383F31188BFF39A
:101BA0006F8FBFF34F8F00F0C5FA18B14FF080521E
:101BB000024B1A60002383F3118808BD04ED00E096
:101BC000064B1B68064AA2FB03239B09013B054AFF
:101BD00013600722044B1A60704700BF0C000020FE
:101BE000D34D621014E000E010E000E0314B1A68C1
:101BF000314B9A4208D14FF0500383F31188BFF361
:101C00006F8FBFF34F8FFEE72A4B1A682B4B9A4218
:101C100008D14FF0500383F31188BFF36F8FBFF3E8
:101C20004F8FFEE700B583B0254B1A78D2B20192F0
:101C3000FF221A701B78DBB28DF803309DF8033059
:101C400003F050031F4A137007221F4B1A6009E06C
:101C50001D4A1368013B13609DF803305B00DBB243
:101C60008DF803309DF8033013F0800FF0D1164A41
:101C700013681B0203F4E0631360019BDBB2104A9C
:101C80001370124B1A6842F470021A601A6842F01C
:101C900070421A60FFF794FF00220D4B1A60FFF7A5
:101CA000D1FE0C4A136843F040431360FFF7BAFEBD
:101CB000FFF79EFE00ED00E071C20F4170C20F41C0
:101CC00000E400E06C4600207046002020ED00E0BB
:101CD0001000002034EF00E0842801D0033070476A
:101CE0000020704708B500F0DFF9002008BD00BFF4
:101CF000F0B585B00F46446805680669B0F908007C
:101D0000FFF7EAFF03AB019300903B46B2B22946CE
:101D1000204600F097F9012801D1039800E0002047
:101D200005B0F0BD08B508B90120FFE700F010FBD1
:101D3000002008BD08B500F0BBFB012801D0FFF76B
:101D400029FF08BD00F1080343604FF0FF328260B5
:101D5000C360036100230360704700BF0023036179
:101D6000704700BF43684B609A688A609A68516008
:101D700099600861036801330360704730B40D68EF
:101D8000B5F1FF3F01D1026907E000F1080200E070
:101D90001A4653681C68A542FAD253684B60996092
:101DA0008A605160086103680133036030BC70478A
:101DB00003694268816891608268416851605A682D
:101DC000904201D182685A6000220261186801388D
:101DD000186070470A4B1B681B680BB9012300E0B1
:101DE000002323B14FF0FF32064B1A607047044BBB
:101DF0001B68DB68DB685A68024B1A60704700BFDB
:101E0000784600205447002010B50446006BFFF7C9
:101E1000B3FD2046FFF7B0FD10BD00BF2DE9F04730
:101E200080469946089D099F0A9C236B02F18042D7
:101E3000013A03EB820626F00706002306E0C856A7
:101E4000E21882F83400CA5612B101330F2BF6D9CA
:101E5000002384F84330062D00D90625E562656429
:101E60004FF0000AC4F848A0201DFFF777FF04F1E7
:101E70001800FFF773FF2461C5F10705A5616462CF
:101E8000C4F84CA084F850A04A4641463046FFF7BB
:101E9000E3FD206007B13C60BDE8F08738B5002461
:101EA00007E004EB840293000E481844FFF74AFF52
:101EB0000134062CF5D90C4D2846FFF743FF0B4C97
:101EC0002046FFF73FFF0A48FFF73CFF0948FFF7AE
:101ED00039FF0948FFF736FF084B1D60084B1C60AF
:101EE00038BD00BF9C4600205C47002070470020A2
:101EF0003847002080460020844700207846002094
:101F00009446002010B50446FFF7D4FD204A13681C
:101F1000013313601F4B1B683BB91E4B1C601368D9
:101F2000012B0DD1FFF7BAFF0AE01B4B1B683BB931
:101F3000184B1B68DA6AE36A9A4201D8154B1C6099
:101F4000164A136801331360E36A012202FA03F1AF
:101F5000134802680A43026003EB83039A00211DC1
:101F600010481044FFF7FEFEFFF7C6FD0A4B1B6842
:101F70006BB1084B1B68DA6AE36A9A4207D24FF0EA
:101F80008052094B1A60BFF34F8FBFF36F8F10BDA4
:101F900030470020344700207C460020584700206E
:101FA000984700209C46002004ED00E070B50446F0
:101FB0000E461D4B1D681D4B18680430FFF7F8FED8
:101FC00050B91A4B1B68DA6A012303FA02F2184966
:101FD0000B6823EA02030B60B4F1FF3F07D136B16F
:101FE000124B196804311348FFF7BCFE70BD2C4436
:101FF0000E4B1B685C60A54207D90F4B18680B4B52
:1020000019680431FFF7BAFE70BD0C4B1868074B16
:1020100019680431FFF7B2FE094B1B689C4201D2DC
:10202000074B1C6070BD00BF5047002034470020A4
:1020300098470020844700209446002078460020DE
:10204000544700202DE9F04385B006460F4615465B
:1020500098469000FFF70EFC60B181465420FFF7D0
:1020600009FC044610B1C0F8309004E04846FFF780
:1020700083FC00E000248CB10023039302940D9BA9
:1020800001930C9B009343462A4639463046FFF79E
:10209000C5FE2046FFF736FF012001E04FF0FF307C
:1020A00005B0BDE8F08300BF00B583B0174B0193C6
:1020B00000230093802216491648FFF7C3FF01282A
:1020C00014D14FF0500383F31188BFF36F8FBFF328
:1020D0004F8F4FF0FF32104B1A6001220F4B1A60E6
:1020E00000220F4B1A60FFF781FD0BE0B0F1FF3FBC
:1020F00008D14FF0500383F31188BFF36F8FBFF304
:102100004F8FFEE703B05DF804FB00BF4C47002093
:10211000F49F0008F5230008544700207C46002067
:1021200050470020024A136801331360704700BF14
:1021300028470020F8B53D4B1B68002B69D13C4B6C
:102140001D6801351D60C5B93A4B1B681B6843B15A
:102150004FF0500383F31188BFF36F8FBFF34F8F9E
:10216000FEE7344A1168344B186810601960334A2E
:10217000136801331360FFF72DFE314B1B689D423E
:1021800003D200243AE0012400E00024294B1B681C
:102190001B680BB9012300E0002323B14FF0FF328D
:1021A000274B1A602AE0234B1B68DB68DE687368E4
:1021B0009D4202D2224A136020E0371D3846FFF7C5
:1021C000F7FDB36A1BB106F11800FFF7F1FDF36AE2
:1021D000012202FA03F11B4802680A43026003EB82
:1021E00083039A00394618481044FFF7BBFDF26A92
:1021F000164B1B68DB6A9A42C5D2C7E7134B1B68B4
:10220000DB6A03EB83039A000F4B9B58012B06D824
:1022100006E00F4A136801331360002400E0012434
:102220000C4B1B6803B101242046F8BD2847002051
:102230005047002078460020944600207446002035
:1022400054470020984700209C4600203447002037
:10225000984600209C47002038B5344B1B6843B992
:102260004FF0500383F31188BFF36F8FBFF34F8F8D
:10227000FEE7FFF71FFC2D4B1A68013A1A601B6836
:10228000002B4CD12A4B1B6833BB00244AE0294B5E
:10229000DB68DC6804F11800FFF78AFD251D28467D
:1022A000FFF786FDE36A012202FA03F12248026881
:1022B0000A43026003EB83039A0029461F48104437
:1022C000FFF750FDE26A1E4B1B68DB6A9A4204D39B
:1022D00001221C4B1A6000E00024164B1B68002BE7
:1022E000D5D10CB1FFF776FD174B1C6854B1FFF741
:1022F00021FF10B10122134B1A60013CF7D10022DB
:10230000114B1A600F4B1B685BB14FF080520F4BA3
:102310001A60BFF34F8FBFF36F8F012402E00024D8
:1023200000E00024FFF7E8FB204638BD28470020E6
:102330003047002038470020984700209C46002066
:10234000344700209C4700209846002004ED00E020
:1023500010B5A8B10446104B1B6843B14FF05003B1
:1023600083F31188BFF36F8FBFF34F8FFEE7FFF743
:10237000D9FE00212046FFF719FEFFF76DFF00E0B0
:10238000002038B94FF08052044B1A60BFF34F8FD2
:10239000BFF36F8F10BD00BF2847002004ED00E0A1
:1023A00010B51BE0FFF7BEFE0F4B1C68FFF754FF94
:1023B000A4B1FFF77FFB0C4BDB68DC68201DFFF747
:1023C000F7FC0A4A1368013B1360094A1368013B92
:1023D0001360FFF791FB2046FFF716FD044B1B68C7
:1023E000002BDFD110BD00BF804600203047002009
:1023F0002C47002008B5FFF7D3FF064B1B68012BC5
:10240000F9D94FF08052044B1A60BFF34F8FBFF3DE
:102410006F8FF0E79C46002004ED00E01F4B1B6827
:102420001BB101221E4B1A60704700221C4B1A6020
:102430001C4B1B68B3FA83F3DBB2C3F11F0303EB3E
:1024400083018A0018498A5842B94FF0500383F338
:102450001188BFF36F8FBFF34F8FFEE730B4124D7B
:102460009900CA189000284442685468446019448E
:102470008A0008322A44944205D1606803EB830144
:102480008A002A44506003EB83039A00064B1A44E7
:102490005368DA68054B1A6030BC70472847002043
:1024A0009C470020984700209C460020344700208D
:1024B000054B1B6823B1054B1B681BB902207047F5
:1024C00001207047002070477C46002028470020EC
:1024D00008B50B4B1A6842F400721A601A6842F48D
:1024E00080621A601A6842F480721A60032000F059
:1024F0002FFB0020FEF77AFBFEF748FB002008BD0B
:10250000003C0240024A136801331360704700BF69
:10251000E04C0020014B1868704700BFE04C0020E1
:10252000002800F02D8138B504460368954A93428F
:1025300007D002F58062934203D0BB219248FEF798
:10254000D5FAA369012B03D9BC218F48FEF7CEFA37
:10255000E369012B03D9BD218B48FEF7C7FA236A33
:10256000012B03D9BE218848FEF7C0FA636A012B0C
:1025700003D9BF218448FEF7B9FAA36A012B03D916
:10258000C0218148FEF7B2FAE36A012B03D9C121C9
:102590007D48FEF7ABFAA36863B1B3F1804F09D071
:1025A000B3F1004F06D0B3F1404F03D0C2217648BB
:1025B000FEF79CFAE36863B1B3F1807F09D0B3F111
:1025C000007F06D0B3F1407F03D0C3216E48FEF7F1
:1025D0008DFA2369B3F5702F03D9C4216A48FEF739
:1025E00085FA6369B3F5E00F03D9C5216648FEF7A4
:1025F0007DFA6368013BB3F5806F03D3C62162485F
:10260000FEF774FA94F83C3013F0FF0F05D1002365
:1026100084F83D302046FEF737F8022384F83C303A
:102620002268136823F0020313602268136843F0E2
:1026300001031360FFF76EFF05460BE0FFF76AFF2B
:10264000401B0A2806D9032084F83C00002384F8A4
:102650003D3038BD23685A6812F0010FEED05A6839
:1026600012F0010F7DD0A269012A04D11A6842F04C
:1026700080021A6003E01A6822F080021A60E3699F
:10268000012B05D12268136843F04003136004E076
:102690002268136823F040031360236A012B05D1DD
:1026A0002268136843F02003136004E02268136873
:1026B00023F020031360636A012B05D1226813689D
:1026C00043F01003136004E02268136823F0100342
:1026D0001360A36A012B05D12268136843F0080335
:1026E000136004E02268136823F008031360E36AB0
:1026F000012B05D12268136843F00403136004E042
:102700002268136823F0040313602168A268E36859
:102710001A4323691A4363691A436368013B1343ED
:10272000CB612268136823F001031360FFF7F2FE08
:1027300005460BE0FFF7EEFE401B0A2806D90320F2
:1027400084F83C00002384F83D3038BD23685A6883
:1027500012F0010FEED15B6813F0010F03D00023DC
:1027600002E0002300E001232BB1002020640123BC
:1027700084F83C3038BD042384F83C30012038BD57
:102780000120704700640040FC9F0008704700BFB4
:1027900008B50268536923F00103536190F83C3097
:1027A000DBB2122B04D10268536923F40F43536147
:1027B00090F83C30DBB2522B07D0722B09D0422B61
:1027C0000BD1222380F83C300AE0322380F83C30E1
:1027D00006E0622380F83C3002E0012380F83C30C0
:1027E000FFF7D4FF002008BD704700BF10B50C46AE
:1027F00009B9436B00E0836B016804F11B0212010D
:102800008A5802F004029A603AB9016804F11B0286
:1028100012018A58520D1A6006E0016804F11B0289
:1028200012018A58D2085A60016804F11B02120191
:10283000895801F00201D96001681144496801F02A
:102840000F0119611C6201680A445268C2F3072231
:10285000DA61016822011144D1F8B81119750168D3
:102860001144D1F8B811090A597501681144D1F819
:10287000B811090C997501681144D1F8B811090E05
:10288000D97501681144D1F8BC1119760168114459
:10289000D1F8BC11090A597601681144D1F8BC116C
:1028A000090C997601680A44D2F8BC21120EDA7636
:1028B00044B903682022DA600268536923F00A03EE
:1028C000536107E0036820221A610268536923F00C
:1028D0005003536190F83C30DBB2222B01D0322BF5
:1028E00004D10268536923F40F435361C4B990F8CB
:1028F0003C30DBB2622B07D0722B09D0422B0BD1BC
:10290000122380F83C3023E0322380F83C301FE073
:10291000522380F83C301BE0012380F83C3017E064
:1029200090F83C30DBB2622B07D0722B09D0522BCF
:102930000BD1122380F83C300AE0222380F83C308F
:1029400006E0422380F83C3002E0012380F83C306E
:10295000FFF74AFF002010BD704700BF70B5044666
:102960000268D168536911F0100F07D003F0080313
:1029700033B11023D3604FF4007502E0002500E06E
:10298000002522681169536903F0400311F0100F0C
:1029900004D01BB145F480651023136123685A6984
:1029A00012F0010F2AD09E689968654A0A4099681A
:1029B00021F06F4121F47C01090C09046148B04306
:1029C00005D05F48824202D05F4A914216D1996891
:1029D0009A6802F400729B6803F4003311F0020F4E
:1029E00001D102B91BB12046FFF7D2FE01E045F448
:1029F000006522689168554B0B4393602368DA6841
:102A00005B6903F0020312F0030F04D01BB1002135
:102A10002046FFF7EBFE23681A695B6903F0100399
:102A200012F0030F04D01BB101212046FFF7DEFE98
:102A3000236C2B432364236898695A6902F48072DB
:102A4000596901F4004110F0010F05D022B119B10C
:102A5000226C42F00102226498695A6902F4007201
:102A6000596901F4004110F0020F05D022B119B1EB
:102A7000226C42F00202226498695A6902F4806270
:102A8000596901F4004110F0040F05D022B119B1C9
:102A9000226C42F00402226498695A6902F40062CE
:102AA000596901F4004110F0700F36D0002A34D07B
:102AB000002932D09A6902F07002302A16D004D868
:102AC000102A09D0202A0CD023E0502A18D0602ADE
:102AD0001BD0402A1DD10EE0226C42F00802226475
:102AE00017E0226C42F01002226412E0226C42F0E5
:102AF000200222640DE0226C42F04002226408E0D1
:102B0000226C42F08002226403E0226C42F4807264
:102B100022649A6922F070029A61236C7BB1236867
:102B200004225A60012384F83C302268536923F45C
:102B30000F4323F05B0353612046FFF70DFF70BD89
:102B40000003000803000004000003101905010041
:102B500010B50446C31E042B03D9A4210948FDF770
:102B6000C5FF094AD36823F4E0631B041B0C24024D
:102B700004F4E064234343F0BF6343F40033D360C1
:102B800010BD00BF34A0000800ED00E070B50446A1
:102B90000E4615460F2A03D9BC211A48FDF7A6FF99
:102BA0000F2E03D9BD211748FDF7A0FF164BDA6899
:102BB000C2F30222C2F10701042928BF0421131D18
:102BC000062B01D9033A00E00022012303FA01F1A8
:102BD00001393140914003FA02F2013A2A400A4396
:102BE000002C06DA04F00F041201D2B2074B1A557A
:102BF00070BD1201D2B204F1604404F5614484F85E
:102C0000002370BD34A0000800ED00E014ED00E0EA
:102C100010B5041E03DAD0210648FDF767FF6209EC
:102C200004F01F04012303FA04F4034B43F8224089
:102C300010BD00BF34A0000800E100E00138B0F191
:102C4000807F0AD2064B5860F021064A82F8231092
:102C50000020986007221A6070470120704700BF6B
:102C600010E000E000ED00E010B50446042805D0B7
:102C700020B140F2DB110848FDF738FF042C05D1E4
:102C8000064A136843F00403136010BD034A136837
:102C900023F00403136010BD34A0000810E000E02E
:102CA0000268D3B2103B0B49A1FB03131B090A496D
:102CB000C95CC165032B06D922F47F7222F003029E
:102CC0000432826504E022F47F7222F003028265FE
:102CD000806D7047ABAAAAAA70A00008836A8269B7
:102CE00082B9012B08D00BB1022B2ED1C36A13F08D
:102CF000807F2CD100207047C36AB3F1C07F28D0F9
:102D000000207047B2F5005F13D1032B03D8DFE832
:102D100003F02204220A00207047C36A13F0807F68
:102D20001BD100207047C36AB3F1C07F17D00020C9
:102D30007047022B15D9032B01D000207047C36ABE
:102D400013F0807F0FD100207047002070470120D2
:102D50007047012070470120704701207047012013
:102D60007047012070470120704700BF70B50446CE
:102D7000FFF7D0FB002C00F02B8105462368954A15
:102D8000934231D0183293422ED0183293422BD036
:102D90001832934228D01832934225D018329342E9
:102DA00022D0183293421FD0183293421CD002F521
:102DB0005672934218D01832934215D0183293426B
:102DC00012D0183293420FD0183293420CD01832DE
:102DD000934209D01832934206D01832934203D05E
:102DE000CA217D48FDF782FE6368C3B1B3F1007F5D
:102DF00015D0B3F1806F12D0B3F1C06F0FD0B3F123
:102E0000006F0CD0B3F1206F09D0B3F1406F06D042
:102E1000B3F1606F03D0CB216F48FDF767FEA36865
:102E20003BB1402B05D0802B03D0CC216A48FDF765
:102E30005DFEE368B3F5007F04D01BB1CD21664889
:102E4000FDF754FE2369B3F5806F04D01BB1CE218A
:102E50006148FDF74BFE63694BB1B3F5006F06D0D7
:102E6000B3F5805F03D0CF215B48FDF73FFEA36938
:102E70004BB1B3F5005F06D0B3F5804F03D0D0213E
:102E80005548FDF733FEE36943B1B3F5807F05D0C4
:102E9000202B03D0D1215048FDF728FE236A63B1CF
:102EA000B3F5803F09D0B3F5003F06D0B3F5403FFE
:102EB00003D0D2214848FDF719FE636A2BB1042BD9
:102EC00003D0D3214448FDF711FE636A23B3A36AFC
:102ED000032B03D9D8214048FDF708FEE36A63B10C
:102EE000B3F5000F09D0B3F1807F06D0B3F1C07FF6
:102EF00003D0D9213848FDF7F9FD236B63B1B3F551
:102F0000001F09D0B3F5800F06D0B3F5C00F03D072
:102F1000DA213148FDF7EAFD002384F8343002233A
:102F200084F835302268136823F0010313600AE047
:102F3000FFF7F0FA401B052805D92023636503201D
:102F400084F8350070BD23681A6812F0010FEFD1C4
:102F50001A68224810406168A2681143E268114370
:102F60002269114362691143A2691143E2690A436C
:102F7000216A114340EA0102616A042903D1E06A2F
:102F8000216B01430A431A602668756925F007051D
:102F9000636A1D43042B0DD1A36A1D43E36A4BB141
:102FA0002046FFF79BFE28B140236365012084F88B
:102FB000350070BD75612046FFF772FEE26D3F235C
:102FC0009340836000206065012384F8353070BD34
:102FD000012070BD1060024078A000083F8010F012
:102FE00090F83530DBB2022B03D0802343650120FB
:102FF0007047052380F835300268136823F0010319
:1030000013600020704700BFF0B583B00446002372
:103010000193714B1B68714DA5FB0335AD0A876D9C
:103020003E68C26D082393401E4210D003681A68A0
:1030300012F0040F0BD01A6822F004021A60C26D5D
:1030400008239340BB60436D43F001034365E26D89
:10305000634B93401E4209D02268526912F0800FE0
:1030600004D0BB60636D43F002036365E26D5D4BAA
:1030700093401E4209D02268126812F0020F04D059
:10308000BB60636D43F004036365E26D10239340FE
:103090001E4224D02268126812F0080F1FD0BB60B5
:1030A00023681A6812F4802F0DD01B6813F4002FC8
:1030B00004D1236C9BB12046984710E0A36C73B1F8
:1030C000204698470BE01A6812F4807F03D11A68F3
:1030D00022F008021A60236C0BB120469847E26D7B
:1030E000202393401E4252D02268126812F0100F23
:1030F0004DD0BB6094F83530DBB2052B22D122686D
:10310000136823F0160313602268536923F08003C9
:103110005361236C0BB9A36C23B12268136823F0AD
:1031200008031360E26D3F239340BB60002384F8E3
:103130003430012384F83530236D002B49D02046EC
:10314000984746E023681A6812F4802F0DD01B6858
:1031500013F4002F04D1636CCBB12046984716E0DE
:10316000E36BA3B12046984711E01A6812F4807F00
:1031700009D11A6822F010021A60002384F8343052
:10318000012384F83530E36B0BB120469847636D1B
:10319000FBB1636D13F0010F17D0052384F83530B0
:1031A0002268136823F001031360019B013301932C
:1031B0009D4204D323681B6813F0010FF5D100234F
:1031C00084F83430012384F83530E36C0BB12046A9
:1031D000984703B0F0BD00BF0C000020B5814E1B26
:1031E00001008000040080002DE9F04782B0804695
:1031F0000F46B24B98422BD003F58063984227D0FC
:1032000003F58063984223D003F5806398421FD072
:1032100003F5806398421BD003F58063984217D072
:1032200003F58063984213D003F5806398420FD072
:1032300003F5806398420BD003F58063984207D072
:1032400003F58063984203D0C5219D48FDF74EFCED
:103250003B689AB212B11B0C1B041BB1C6219848E3
:10326000FDF744FC7B68012B22D9112B20D0022BC7
:103270001ED0122B1CD0934A934219D002F5801213
:10328000934215D002F58012934211D0A2F5F812A4
:1032900093420DD002F58012934209D002F58012BC
:1032A000934205D0032B03D0C7218548FDF71EFCB0
:1032B000BB68022B03D9C8218148FDF717FC002504
:1032C0003CE10124AC403E682640B44240F03581E8
:1032D0007B68022B01D0122B54D13B69002B41D0CB
:1032E000092B3FD0F3B3EBB3E3B3DBB3012B39D0FE
:1032F00038D0022B36D035D034D0032B32D0042B2B
:1033000030D02FD02ED0052B2CD02BD0092B29D06C
:10331000062B27D0092B25D0072B23D022D021D054
:10332000082B1FD01ED01DD0092B1BD01AD00A2B62
:1033300018D017D00B2B15D00C2B13D012D00D2B6F
:1033400010D00F2B0ED0052B0CD00BD00AD0082B91
:1033500008D007D00C2B05D0062B03D0D921584814
:10336000FDF7C4FBEA08083258F8220005F007030D
:1033700099000F238B4020EA03003B698B400343F5
:1033800048F82230D8F800304FEA450A4FF00309D8
:1033900009FA0AF96FEA090903EA09027B6803F0EE
:1033A000030303FA0AF31343C8F800307B685A1E7C
:1033B000012A03D9112B01D0122B1BD1FB68032B3F
:1033C00003D9EC213E48FDF791FBD8F8083009EA13
:1033D0000302FB6803FA0AF31343C8F80830D8F86D
:1033E000043023EA04047B68C3F30013AB401C439E
:1033F000C8F80440D8F80C3009EA0309BB6803FA9E
:103400000AF349EA0303C8F80C307B6813F0805FC5
:1034100000F09380002301932B4B5A6C42F48042BE
:103420005A645B6C03F480430193019BA9088A1CD6
:10343000264B53F8220005F003039B000F229A400D
:1034400020EA02001D4A904525D002F58062904591
:1034500023D002F58062904521D002F5806290452C
:103460001FD002F5806290451DD002F58062904524
:103470001BD002F58062904519D002F5806290451C
:1034800017D002F58062904515D002F58062904514
:103490001ED109221DE000221BE0012219E00222B8
:1034A00017E0032215E0042213E0052211E00622B2
:1034B0000FE007220DE008220BE000BF00000240F1
:1034C000B0A0000800001110003802400038014090
:1034D0000A2202FA03F3034302311B4A42F8213065
:1034E0001A4B1A68F34302EA0301786810F4803F2C
:1034F00001D046EA0201154A1160526803EA02014E
:10350000786810F4003F01D046EA02010F4A51608A
:10351000926803EA0201786810F4801F01D046EA3D
:1035200002010A4A9160D2681340796811F4001FC1
:1035300001D046EA0203054AD36001350F2D7FF61C
:10354000C0AE02B0BDE8F08700380140003C014049
:1035500070B5064615460C4621B940F2B11108482F
:10356000FDF7C4FA012D04D94FF4D9710448FDF7D1
:10357000BDFA0DB1B46170BD2404B46170BD00BF6B
:10358000B0A0000810B582B000230193244B1A6C40
:1035900042F080521A641B6C03F080530193019B2C
:1035A0004FF4803393FAA3F3B3FA83F303F1845314
:1035B00003F560339B0001221A60FEF7ABFF04465F
:1035C00005E0FEF7A7FF001BB0F57A7F22D8154B68
:1035D0005B6813F4803FF4D04FF4003393FAA3F305
:1035E000B3FA83F303F1845303F560339B000122A4
:1035F0001A60FEF78FFF044605E0FEF78BFF001B05
:10360000B0F57A7F08D8074B5B6813F4003FF4D01D
:10361000002002E0032000E0032002B010BD00BF44
:10362000003802400070004030B583B004460368A3
:103630000F2B03D9F321A948FDF758FA236813F09B
:10364000010F66D063684BB1B3F5803F06D0B3F588
:10365000A02F03D0F821A148FDF748FAA04B9B68A2
:1036600003F00C03042B0AD09D4B9B6803F00C0362
:10367000082B0DD19A4B5B6813F4800F08D0984B40
:103680001B6813F4003F44D06368002B41D1FFE175
:103690006368B3F5803F05D1914A136843F48033E2
:1036A000136015E0B3F5A02F09D18D4B1A6842F4D1
:1036B00080221A601A6842F480321A6008E0884B4F
:1036C0001A6822F480321A601A6822F480221A6082
:1036D00063687BB1FEF71EFF054605E0FEF71AFFA3
:1036E000401B642800F2D6817D4B1B6813F4003F19
:1036F000F4D00EE0FEF70EFF054605E0FEF70AFFE8
:10370000401B642800F2C881754B1B6813F4003F0E
:10371000F4D1236813F0020F6AD0E368012B04D9B7
:103720004FF495716D48FDF7E1F923691F2B04D91A
:1037300040F22B116948FDF7D9F9694B9B6813F0EA
:103740000C0F0AD0664B9B6803F00C03082B1BD1AF
:10375000634B5B6813F4800F16D1614B1B6813F049
:10376000020F03D0E368012B40F098815C480368A6
:1037700023F0F8012369F82292FAA2F2B2FA82F257
:1037800093400B43036033E0E368FBB10122554BE8
:103790001A60FEF7BFFE054605E0FEF7BBFE401BC4
:1037A000022800F27D814E4B1B6813F0020FF4D00B
:1037B0004B48036823F0F8012369F82292FAA2F239
:1037C000B2FA82F293400B43036011E00022454BB2
:1037D0001A60FEF79FFE054605E0FEF79BFE401BC4
:1037E000022800F25F813E4B1B6813F0020FF4D1F8
:1037F000236813F0080F2ED06369012B04D940F21F
:103800006B113648FDF772F9636993B10122364BAB
:103810001A60FEF77FFE054605E0FEF77BFE401BC3
:10382000022800F241812E4B5B6F13F0020FF4D09F
:1038300011E000222C4B1A60FEF76CFE054605E0F5
:10384000FEF768FE401B022800F23081244B5B6FBC
:1038500013F0020FF4D1236813F0040F76D0A3689D
:10386000012B06D9052B04D040F295111B48FDF71A
:103870003DF9002301931A4B1A6C42F080521A64EE
:103880001B6C03F080530193019B184A136843F4A7
:1038900080731360FEF73EFE054605E0FEF73AFE34
:1038A000401B022800F20481104B1B6813F4807F38
:1038B000F4D0A368012B05D1094A136F43F001032B
:1038C00013671EE0052B13D1054B1A6F42F004025B
:1038D0001A671A6F42F001021A6712E0ECA00008A2
:1038E0000038024000004742800E4742007000400E
:1038F000784B1A6F22F001021A671A6F22F0040245
:103900001A67A3688BB1FEF705FE054607E0FEF7D0
:1039100001FE401B41F28833984200F2CB806D4B90
:103920001B6F13F0020FF2D010E0FEF7F3FD054617
:1039300007E0FEF7EFFD401B41F28833984200F2AA
:10394000BB80644B1B6F13F0020FF2D1A369022BF3
:1039500004D94FF4E5716048FDF7C8F8A369002B5E
:1039600000F0AC805B4A926802F00C02082A00F07A
:10397000A780022B79D1E3693BB1B3F5800F04D066
:1039800040F2D3115448FDF7B1F8236A3F2B04D914
:103990004FF4EA715048FDF7A9F8636A323BB3F57A
:1039A000BF7F04D940F2D5114B48FDF79FF8A36AB9
:1039B000022B0AD0042B08D0062B06D0082B04D0EB
:1039C0004FF4EB714448FDF791F8E36A023B0D2B8D
:1039D00004D940F2D7114048FDF788F800223F4B48
:1039E0001A60FEF797FD054604E0FEF793FD401BC5
:1039F000022867D8374B1B6813F0007FF5D1E169C7
:103A0000236A1943636A47F6C07292FAA2F2B2FAC5
:103A100082F293401943A36A5B085A1E4FF4403365
:103A200093FAA3F3B3FA83F302FA03F30B43E26AC4
:103A30004FF0706191FAA1F1B1FA81F18A4013431C
:103A4000244A53600122254B1A60FEF763FD0446A9
:103A500004E0FEF75FFD001B022835D81D4B1B68F4
:103A600013F0007FF5D0002031E000221B4B1A60DC
:103A7000FEF750FD044604E0FEF74CFD001B022853
:103A800024D8144B1B6813F0007FF5D100201EE0F2
:103A900001201CE003201AE0032018E0012016E0BA
:103AA000032014E0032012E0032010E003200EE0C6
:103AB00003200CE003200AE0032008E0002006E0D9
:103AC000012004E0032002E0032000E0032003B013
:103AD00030BD00BF00380240ECA000086000474243
:103AE000254B9B6803F00C03042B3FD0082B01D01F
:103AF0002248704710B4204B586800F03F005B68C4
:103B000013F4800F10D01E4BB3FBF0F01A4B5A6821
:103B100047F6C0710A4091FAA1F3B3FA83F322FA8F
:103B200003F303FB00F310E0144BB3FBF0F0124B74
:103B30005A6847F6C07402EA040194FAA4F2B2FA91
:103B400082F221FA02F202FB00F30B4A506800F401
:103B500040324FF4403090FAA0F0B0FA80F022FAF0
:103B600000F001304000B3FBF0F001E00448704782
:103B70005DF8044B704700BF003802400024F40099
:103B8000001BB70070B504460D460368013B0E2BC1
:103B900004D940F235218F48FCF7A8FF0F2D04D936
:103BA00040F236218B48FCF7A1FF8B4B1B6803F0DA
:103BB0000F039D4208D9EBB2874A1370136803F0D4
:103BC0000F039D4240F0F480236813F0020F1DD0D4
:103BD000A368A3B1802B12D0902B10D0A02B0ED0B5
:103BE000B02B0CD0C02B0AD0D02B08D0E02B06D0A5
:103BF000F02B04D040F24D217648FCF777FF77494F
:103C00008B6823F0F002A36813438B60236813F0E2
:103C1000010F6BD06368032B04D94FF415716D4805
:103C2000FCF764FF6268012A05D16C4B1B6813F432
:103C3000003F0FD1BEE0931E012B05D8674B1B68D8
:103C400013F0007F06D1B7E0644B1B6813F0020F3E
:103C500000F0B48061498B6823F0030313438B6049
:103C6000FEF758FC06466368012B0FD107E0FEF70C
:103C700051FC801B41F28833984200F2A180574BDF
:103C80009B6803F00C03042BF1D12FE0022B0FD122
:103C900007E0FEF73FFC801B41F28833984200F2B8
:103CA00091804E4B9B6803F00C03082BF1D11DE073
:103CB000032B16D107E0FEF72DFC801B41F2883361
:103CC000984200F28180454B9B6803F00C030C2B5B
:103CD000F1D10BE0FEF71EFC801B41F288339842C5
:103CE00074D83E4B9B6813F00C0FF3D13A4B1B6812
:103CF00003F00F039D4207D2EAB2374B1A701B68DC
:103D000003F00F039D4263D1236813F0040F19D011
:103D1000E36883B1B3F5805F0DD0B3F5A05F0AD03F
:103D2000B3F5C05F07D0B3F5E05F04D040F2B22135
:103D30002848FCF7DBFE29498B6823F4E052E3684E
:103D400013438B60236813F0080F1AD0236983B1E3
:103D5000B3F5805F0DD0B3F5A05F0AD0B3F5C05FB7
:103D600007D0B3F5E05F04D040F2B9211948FCF761
:103D7000BDFE1A4A936823F46043216943EAC103F4
:103D80009360FFF7ADFE154B9B6803F0F002F02344
:103D900093FAA3F3B3FA83F322FA03F3104AD35C42
:103DA000D840104B18600020FCF720FF002070BDA9
:103DB000012070BD012070BD012070BD012070BDCB
:103DC000032070BD032070BD032070BD032070BDB3
:103DD000012070BDECA00008003C02400038024009
:103DE000BC9F00080C000020014B1868704700BF02
:103DF0000C00002008B5FFF7F7FF084B9B6803F4A1
:103E0000E0524FF4E05393FAA3F3B3FA83F322FAA8
:103E100003F3034AD35CD84008BD00BF003802401A
:103E2000CC9F000808B5FFF7DFFF084B9B6803F441
:103E300060424FF4604393FAA3F3B3FA83F322FA98
:103E400003F3034AD35CD84008BD00BF00380240EA
:103E5000CC9F00080F2303600B4B9A6802F003020B
:103E600042609A6802F0F00282609A6802F4E052BE
:103E7000C2609B68DB0803F4E0530361034B1B68DB
:103E800003F00F030B60704700380240003C024013
:103E9000002800F0C38010B504460368604A9342CE
:103EA00018D0A2F57842934214D002F58062934272
:103EB00010D002F5784293420CD002F5E0529342C2
:103EC00008D002F58062934204D04FF488715548BF
:103ED000FCF70CFE63683BB1B3F5827F04D040F27F
:103EE00011115048FCF702FEA36853B1B3F5806F7F
:103EF00007D0B3F5004F04D04FF489714948FCF75F
:103F0000F5FDE368B3F5006F05D023B140F213115E
:103F10004448FCF7EBFDA369B3F5007F08D03BB143
:103F2000B3F5802F04D04FF48A713E48FCF7DEFDD4
:103F3000E36993B1082B10D0102B0ED0182B0CD0A6
:103F4000202B0AD0282B08D0302B06D0382B04D0B9
:103F500040F215113348FCF7C9FD236A33B1802BB9
:103F600004D04FF48B712F48FCF7C0FD636A33B166
:103F7000102B04D040F217112A48FCF7B7FD636AF2
:103F800083B9236933B1022B04D04FF48D712548D6
:103F9000FCF7ACFD6369012B04D940F21B112148E9
:103FA000FCF7A4FD0023A36294F8513013F0FF0F37
:103FB00005D1002384F850302046FCF7BDFD0223D4
:103FC00084F851302268136823F04003136021689D
:103FD0006268A3681A43E3681A4323691A43636952
:103FE0001A43A36903F400731343E2691343226A7B
:103FF0001343A26A1A430A602168638B03F0040228
:10400000636A13434B602268D36923F40063D3616E
:1040100000206065012384F8513010BD01207047F5
:104020000030014024A1000870B4036A23F00103AA
:104030000362036A4268846924F073040D6844EAE9
:10404000050623F002048B6823430F4DA84204D0D9
:104050000E4CA04203D1012402E0012400E0002420
:104060005CB123F00803CD682B4323F0040322F452
:1040700040724D6915438A692A43426086614A68E5
:104080004263036270BC70470000014000040140BD
:104090002DE9F04104460E46036A23F4807303625F
:1040A000056A4768C36923F073080B6848EA030888
:1040B00025F400738D6843EA0525204B984205D00E
:1040C00003F58063984203D1012302E0012300E05D
:1040D00000235BB3F36833B1082B04D041F21931EC
:1040E0001748FCF703FDB369B3F5007F05D023B192
:1040F00041F21A311248FCF7F9FC7369B3F5807F7D
:1041000005D023B141F21B310D48FCF7EFFC25F43B
:104110000065F36845EA032525F4806527F44057D8
:10412000736947EA0317B36947EA03176760C4F87E
:104130001C807368E3632562BDE8F08100000140E4
:104140005CA100082DE9F04104460F46036A23F400
:1041500080530362056AD0F80480C66926F4E643FA
:104160000E6843EA062625F400538D6843EA0535B8
:10417000114B984205D003F58063984203D1012387
:1041800002E0012300E0002373B17B69B3F5807F77
:1041900005D023B141F25F310848FCF7A7FC28F4B1
:1041A00080487B6948EA8318C4F80480E6617B682C
:1041B00023642562BDE8F081000001405CA1000895
:1041C000704700BF10B504460368234A934237D0B6
:1041D000B3F1804F34D0A2F57C42934230D002F547
:1041E000806293422CD002F58062934228D002F57F
:1041F0008062934224D002F58062934220D002F57F
:10420000704293421CD002F57052934218D002F5CE
:104210008062934214D002F58062934210D0A2F5DE
:10422000983293420CD002F58062934208D002F596
:104230008062934204D04FF4B2710848FCF756FCF8
:104240002268D36843F00103D3602268136843F007
:1042500001031360002010BD000001405CA10008B4
:10426000704700BF704700BF704700BF704700BF76
:1042700010B5044603681A6912F0020F17D0DA6805
:1042800012F0020F13D06FF002021A6101230376BD
:1042900003689B6913F0030F02D0FFF7E3FF04E00C
:1042A000FFF7DEFF2046FFF7DFFF002323762368BA
:1042B0001A6912F0040F19D0DA6812F0040F15D041
:1042C0006FF004021A610223237623689B6913F4BA
:1042D000407F03D02046FFF7C5FF05E02046FFF7EB
:1042E000BFFF2046FFF7C0FF0023237623681A692B
:1042F00012F0080F19D0DA6812F0080F15D06FF01D
:1043000008021A61042323762368DB6913F0030F84
:1043100003D02046FFF7A6FF05E02046FFF7A0FFE9
:104320002046FFF7A1FF0023237623681A6912F0C5
:10433000100F19D0DA6812F0100F15D06FF01002BC
:104340001A61082323762368DB6913F4407F03D0C6
:104350002046FFF787FF05E02046FFF781FF204654
:10436000FFF782FF0023237623681A6912F0010FFA
:1043700009D0DA6812F0010F05D06FF001021A615E
:104380002046FCF715FB23681A6912F0800F09D04C
:10439000DA6812F0800F05D06FF080021A612046B3
:1043A00000F01CFC23681A6912F0400F09D0DA688B
:1043B00012F0400F05D06FF040021A612046FFF75F
:1043C00055FF23681A6912F0200F09D0DA6812F03D
:1043D000200F05D06FF020021A61204600F0FCFB90
:1043E00010BD00BF0368454A904214D0B0F1804F21
:1043F00013D0A2F57C42904211D002F58062904227
:104400000FD002F5806290420DD002F578429042C2
:104410000BD101220AE0012208E0012206E001227C
:1044200004E0012202E0012200E000221AB123F0A0
:1044300070034A681343314A90422CD0B0F1804F48
:104440002BD0A2F57C42904229D002F580629042A6
:1044500027D002F58062904225D002F57842904242
:1044600023D002F57052904221D002F58062904232
:104470001FD002F5806290421DD0A2F59832904282
:104480001BD002F58062904219D002F58062904202
:1044900017D1012216E0012214E0012212E00122CC
:1044A00010E001220EE001220CE001220AE00122CC
:1044B00008E0012206E0012204E0012202E00122DC
:1044C00000E000221AB123F44073CA68134303606A
:1044D0008B68C3620B688362084B984205D003F572
:1044E0008063984203D1012302E0012300E000230E
:1044F0000BB10B6903630123436170470000014066
:1045000000286DD010B504460368364A934236D071
:10451000B3F1804F33D0A2F57C4293422FD002F505
:10452000806293422BD002F58062934227D002F53D
:104530008062934223D002F5806293421FD002F53D
:10454000704293421BD002F57052934217D002F58D
:104550008062934213D002F5806293420FD0A2F59D
:10456000983293420BD002F58062934207D002F555
:104570008062934203D0D9211B48FCF7B7FAA368A5
:104580005BB1102B09D0202B07D0402B05D0602B1E
:1045900003D0DA211448FCF7A9FA23694BB1B3F52B
:1045A000807F06D0B3F5007F03D0DB210E48FCF7F7
:1045B0009DFA94F8393013F0FF0F05D1002384F8E9
:1045C00038302046FFF7FCFD022384F83930211DE6
:1045D0002068FFF707FF012384F83930002010BD61
:1045E00001207047000001405CA10008002870D045
:1045F00010B504460368384A934237D0B3F1804F70
:1046000034D0A2F57C42934230D002F580629342CE
:104610002CD002F58062934228D002F5806293424A
:1046200024D002F58062934220D002F5704293427A
:104630001CD002F57052934218D002F5806293426A
:1046400014D002F58062934210D0A2F598329342C2
:104650000CD002F58062934208D002F5806293424A
:1046600004D040F2F3311D48FCF740FAA36863B16F
:10467000102B0AD0202B08D0402B06D0602B04D062
:104680004FF47D711548FCF731FA236953B1B3F546
:10469000807F07D0B3F5007F04D040F2F5310F489A
:1046A000FCF724FA94F8393013F0FF0F05D10023FA
:1046B00084F838302046FCF7C5FB022384F83930F3
:1046C000211D2068FFF78EFE012384F83930002079
:1046D00010BD0120704700BF000001405CA1000830
:1046E0002DE9F04104460E46036A23F010030362ED
:1046F000056AD0F80480876927F4E6430F6843EA27
:10470000072725F020038D6843EA0515164B9842CC
:1047100005D003F58063984203D1012302E0012311
:1047200000E00023BBB1F36833B1082B04D041F2A1
:1047300007210E48FCF7DAF925F08005F36845EA11
:10474000031525F0400528F44068736948EA83089A
:10475000B36948EA8308C4F80480A7617368A36357
:104760002562BDE8F08100BF000001405CA10008A7
:1047700090F83830012B00F02E8170B516460D46AA
:104780000446012380F8383062B1042A0AD0082A8E
:1047900008D00C2A06D0182A04D040F64A418F4887
:1047A000FCF7A4F92B68602B06D0702B04D040F6E0
:1047B0004B418A48FCF79AF9AB6833B1022B04D01D
:1047C00040F64C418548FCF791F92B6933B1042B35
:1047D00004D040F64D418148FCF788F9022384F863
:1047E00039300C2E00F2F080DFE816F00D00EE00FC
:1047F000EE00EE005500EE00EE00EE008E00EE0042
:10480000EE00EE00BE002368754A93422FD0B3F14C
:10481000804F2CD0A2F57C42934228D002F58062D2
:10482000934224D002F58062934220D002F5784270
:1048300093421CD002F57052934218D002F5806268
:10484000934214D002F58062934210D0A2F59832C0
:1048500093420CD002F58062934208D002F5806248
:10486000934204D040F655415C48FCF73FF9294695
:104870002068FFF7D9FB2268936943F0080393612E
:104880002268936923F004039361226891692B697C
:104890000B43936198E02368514A93421FD0B3F1D0
:1048A000804F1CD0A2F57C42934218D002F5806262
:1048B000934214D002F58062934210D002F5784200
:1048C00093420CD002F57052934208D0A2F5943274
:1048D000934204D040F664414048FCF707F929466A
:1048E0002068FFF7FDFE2268936943F4006393613B
:1048F0002268936923F4806393612268936929692C
:1049000043EA012393615FE02368354A934217D05D
:10491000B3F1804F14D0A2F57C42934210D002F53F
:10492000806293420CD002F58062934208D002F577
:104930007842934204D040F673412848FCF7D6F8F9
:1049400029462068FFF7A4FB2268D36943F00803D7
:10495000D3612268D36923F00403D3612268D1694B
:104960002B690B43D3612FE023681D4A934217D074
:10497000B3F1804F14D0A2F57C42934210D002F5DF
:10498000806293420CD002F58062934208D002F517
:104990007842934204D040F682411048FCF7A6F8D2
:1049A00029462068FFF7CEFB2268D36943F40063F1
:1049B000D3612268D36923F48063D3612268D36909
:1049C000296943EA0123D361012384F839300020A7
:1049D00084F8380070BD0220704700BF5CA1000859
:1049E0000000014038B504460D460368334A93423F
:1049F0001FD0B3F1804F1CD0A2F57C42934218D057
:104A000002F58062934214D002F58062934210D086
:104A100002F5806293420CD002F58062934208D086
:104A200002F57042934204D04FF4CB612448FCF766
:104A30005DF82B6893B1102B10D0202B0ED0302BAB
:104A40000CD0402B0AD0502B08D0602B06D0702BF6
:104A500004D040F259611A48FCF748F86B68802B83
:104A600005D023B140F25A611548FCF73FF894F89D
:104A70003830012B1FD0012284F83820022384F81B
:104A8000393021684B6823F070034B602168486817
:104A90002B6803434B6021688B6823F080038B6095
:104AA000216888686B6803438B6084F83920002094
:104AB00084F8380038BD022038BD00BF0000014036
:104AC00094A1000838B505460C460368404A934255
:104AD00008D002F58062934204D04FF4D0613D4883
:104AE000FCF704F82368B3F5006F05D023B140F25A
:104AF00081613848FBF7FAFF6368B3F5806F05D032
:104B000023B140F282613348FBF7F0FFA3686BB139
:104B1000B3F5807F0AD0B3F5007F07D0B3F5407FAF
:104B200004D040F283612B48FBF7E0FFE368FF2BE2
:104B300004D940F284612748FBF7D8FF2369B3F515
:104B4000805F05D023B140F285612248FBF7CEFF9C
:104B500063693BB1B3F5005F04D040F286611D4844
:104B6000FBF7C4FFA369B3F5804F05D023B140F232
:104B700087611848FBF7BAFF95F83830012B24D02D
:104B8000012385F83830E36823F44072A3681343A7
:104B900023F480626368134323F4006223681343A1
:104BA00023F480522369134323F4005263691343AF
:104BB00023F48043A269134323F4004313432A6878
:104BC0005364002085F8380038BD022038BD00BF8E
:104BD0000000014094A10008704700BF704700BF6B
:104BE0000268D36823F49073D3600268536923F09A
:104BF00001035361202380F83A30704790F8393030
:104C0000DBB2212B2BD18368B3F5805F0FD1036A10
:104C100002681B88C3F30803536003691BB9036A66
:104C20000233036209E0036A0133036205E00268AC
:104C3000036A591C01621B785360C38C9BB2013B11
:104C40009BB2C3846BB90268D36823F08003D3603E
:104C50000268D36843F04003D3600020704702200D
:104C600070470020704700BF2DE9F84304464268B2
:104C7000B14B9A4204D940F68711B048FBF736FF92
:104C8000E3683BB1B3F5005F04D040F68811AB4850
:104C9000FBF72CFF236953B1B3F5806F07D0B3F551
:104CA000C06F04D040F68911A448FBF71FFF636969
:104CB0004FF6F372134200D123B940F68A119F4890
:104CC000FBF714FF21680B6923F44052E368134398
:104CD0000B612068C36823F4164222F00C02A1681D
:104CE0002369194363691943E3690B431343C360A1
:104CF00021684B6923F44072A36913434B61E36954
:104D0000B3F5004F40F0BB80276803F1804303F503
:104D100010439F4203D003F580639F4257D1FFF7B2
:104D200081F800EB800000EB800065686D00B0FB4F
:104D3000F5F5834EA6FB05356D092D01FFF772F8D9
:104D400000EB800000EB800063685B00B0FBF3F9D0
:104D5000FFF768F800EB800000EB800063685B0001
:104D6000B0FBF3F3A6FB03235B094FF0640808FBD9
:104D70001393DB003233A6FB03235B095B0003F4D0
:104D8000F8731D44FFF74EF800EB800000EB800045
:104D900063685B00B0FBF3F9FFF744F800EB8000B9
:104DA00000EB800063685B00B0FBF3F3A6FB03231A
:104DB0005B0908FB13984FEAC80808F13208A6FB04
:104DC0000836C6F342163544BD60BDE8F883FFF7E8
:104DD00011F800EB800000EB800065686D00B0FB0F
:104DE000F5F5574EA6FB05356D092D01FFF702F8C5
:104DF00000EB800000EB800063685B00B0FBF3F920
:104E0000FEF7F8FF00EB800000EB800063685B00BA
:104E1000B0FBF3F3A6FB03235B094FF0640808FB28
:104E20001393DB003233A6FB03235B095B0003F41F
:104E3000F8731D44FEF7DEFF00EB800000EB8000FE
:104E400063685B00B0FBF3F9FEF7D4FF00EB800072
:104E500000EB800063685B00B0FBF3F3A6FB032369
:104E60005B0908FB13984FEAC80808F13208A6FB53
:104E70000836C6F342163544BD60BDE8F88326689F
:104E8000304B9E4203D003F580639E425CD1FEF717
:104E9000C9FF00EB800000EB80006568AD00B0FB4F
:104EA000F5F5274FA7FB05356D092D01FEF7BAFF74
:104EB00000EB800000EB800063689B00B0FBF3F820
:104EC000FEF7B0FF00EB800000EB800063689B0002
:104ED000B0FBF3F3A7FB03235B094FF0640909FB65
:104EE00013831B013233A7FB03235B0903F0F00399
:104EF0001D44FEF797FF00EB800000EB8000636825
:104F00009B00B0FBF3F8FEF78DFF00EB800000EB99
:104F1000800063689B00B0FBF3F3A7FB03235B09EE
:104F200009FB13831B013233A7FB0323C3F3431392
:104F30001D44B560BDE8F883A037A000D0A10008EB
:104F40001F85EB5100100140FEF754FF00EB80007D
:104F500000EB80006568AD00B0FBF5F5254FA7FBC1
:104F600005356D092D01FEF745FF00EB800000EBD4
:104F7000800063689B00B0FBF3F8FEF73BFF00EB9B
:104F8000800000EB800063689B00B0FBF3F3A7FB9D
:104F900003235B094FF0640909FB13831B013233C0
:104FA000A7FB03235B0903F0F0031D44FEF722FF78
:104FB00000EB800000EB800063689B00B0FBF3F81F
:104FC000FEF718FF00EB800000EB800063689B0099
:104FD000B0FBF3F3A7FB03235B0909FB13831B015E
:104FE0003233A7FB0323C3F343131D44B560BDE86D
:104FF000F88300BF1F85EB51002800F0908010B5AA
:10500000044683692BB30368464A934210D0A2F545
:105010004C4293420CD002F58062934208D002F5D4
:105020004C42934204D04FF481713F48FBF75EFD40
:10503000A3699BB3B3F5807F30D0B3F5007F2DD04B
:10504000B3F5407F2AD040F203113748FBF74EFDFD
:1050500024E00368334A934220D0A2F54C429342A5
:105060001CD002F58062934218D002F58062934210
:1050700014D002F58062934210D002F5444293426C
:105080000CD0A2F51C42934208D002F580629342F4
:1050900004D040F207112448FBF728FDA3683BB178
:1050A000B3F5805F04D040F209111F48FBF71EFDE5
:1050B000E3693BB1B3F5004F04D04FF485711A4852
:1050C000FBF714FD94F8393013F0FF0F05D10023DE
:1050D00084F838302046FCF743FA242384F839302A
:1050E0002268D36823F40053D3602046FFF7BCFD49
:1050F0002268136923F4904313612268536923F0F3
:105100002A0353612268D36843F40053D36000201C
:10511000E063202384F8393084F83A3010BD012050
:10512000704700BF00100140D0A10008704700BFC9
:1051300008B50168CB6823F04003CB60202380F8DA
:105140003930FFF7F3FF002008BD00BF704700BFF4
:1051500008B590F83A30DBB2222B3FD18368B3F523
:10516000805F13D1826A036943B903685B68C3F344
:1051700008031380836A0233836218E003685B6864
:10518000DBB21380836A0133836210E0036933B9B1
:10519000836A5A1C8262026852681A7007E0826A47
:1051A000531C836203685B6803F07F031370C38D35
:1051B0009BB2013B9BB2C38593B90268D36823F4C9
:1051C0009073D3600268536923F001035361202375
:1051D00080F83A30FFF7BAFF002008BD022008BD72
:1051E000002008BD704700BF10B504460268136870
:1051F000D168526913F00F0009D113F0200F06D0C7
:1052000011F0200F03D02046FFF7A2FF10BD0028A9
:1052100062D012F0010202D111F4907F5CD013F041
:10522000010F06D011F4807F03D0E06B40F0010045
:10523000E06313F0040F04D01AB1E06B40F00200F9
:10524000E06313F0020F04D01AB1E06B40F00400E9
:10525000E06313F0080F04D01AB1E26B42F00802C9
:10526000E263E26B002A4AD013F0200F05D011F060
:10527000200F02D02046FFF76BFF23685B6903F025
:105280004003E26B12F0080F00D1FBB12046FFF79C
:10529000A7FC23685A6912F0400F13D05A6922F014
:1052A00040025A61636B4BB1154A1A65606BFDF79A
:1052B00097FE20B3606B036D984710BD2046FFF743
:1052C00091FF10BD2046FFF78DFF10BD2046FFF770
:1052D00089FF0023E36310BD13F0800F06D011F0A7
:1052E000800F03D02046FFF789FC10BD13F0400F5C
:1052F00005D011F0400F02D02046FFF719FF10BD76
:105300000553000808B5806B0023C385C384FFF7ED
:1053100069FF08BD014B1868704700BF40040020BA
:10532000844641EA000313F003036DD1403A41D3B0
:1053300051F8043B40F8043B51F8043B40F8043B6F
:1053400051F8043B40F8043B51F8043B40F8043B5F
:1053500051F8043B40F8043B51F8043B40F8043B4F
:1053600051F8043B40F8043B51F8043B40F8043B3F
:1053700051F8043B40F8043B51F8043B40F8043B2F
:1053800051F8043B40F8043B51F8043B40F8043B1F
:1053900051F8043B40F8043B51F8043B40F8043B0F
:1053A00051F8043B40F8043B51F8043B40F8043BFF
:1053B000403ABDD2303211D351F8043B40F8043B9F
:1053C00051F8043B40F8043B51F8043B40F8043BDF
:1053D00051F8043B40F8043B103AEDD20C3205D3AF
:1053E00051F8043B40F8043B043AF9D2043208D0A7
:1053F000D2071CBF11F8013B00F8013B01D30B8819
:1054000003806046704700BF082A13D38B078DD0F6
:1054100010F003038AD0C3F10403D21ADB071CBFC8
:1054200011F8013B00F8013B80D331F8023B20F832
:10543000023B7BE7043AD9D3013A11F8013B00F86B
:10544000013BF9D20B7803704B7843708B788370F3
:105450006046704770B4840746D0541E002A41D07D
:10546000CDB2034602E0621EE4B3144603F8015BCA
:105470009A07F8D1032C2ED9CDB245EA05250F2C79
:1054800045EA054519D903F110022646103E0F2EB4
:1054900042F8105C42F80C5C42F8085C42F8045C8C
:1054A00002F11002F2D8A4F1100222F00F0204F06F
:1054B0000F041032032C13440DD91E462246043A21
:1054C000032A46F8045BFAD8221F22F003020432B2
:1054D000134404F003042CB1C9B21C4403F8011BAB
:1054E000A342FBD170BC704714460346C2E700BF1D
:1054F00000000000000000000000000000000000AC
:1055000090F800F06DE9024520F007016FF0000C03
:1055100010F0070491F820F040F049804FF00004AB
:105520006FF00700D1E9002391F840F000F1080086
:1055300082FA4CF2A4FA8CF283FA4CF3A2FA8CF3BE
:105540004BBBD1E9022382FA4CF200F10800A4FA25
:105550008CF283FA4CF3A2FA8CF3E3B9D1E9042379
:1055600082FA4CF200F10800A4FA8CF283FA4CF3B0
:10557000A2FA8CF37BB9D1E9062301F1200182FA6A
:105580004CF200F10800A4FA8CF283FA4CF3A2FA70
:105590008CF3002BC6D0002A04BF04301A4612BA7E
:1055A000B2FA82F2FDE8024500EBD2007047D1E981
:1055B000002304F00305C4F100004FEAC50514F010
:1055C000040F91F840F00CFA05F562EA05021CBFE1
:1055D00063EA050362464FF00004A9E770B5002AAC
:1055E0009AB005462FDB14461A464FF40273009119
:1055F0000491ADF80C3011D0013C4FF6FF761E9BA4
:10560000029469460594ADF80E6000F031F8421C32
:1056100012DB009B00221A701AB070BD1E9B029410
:105620004FF6FF7669460594ADF80E6000F020F85D
:10563000431C04DB1AB070BD8B232B60E9E78B237E
:105640002B601AB070BD8B2303604FF0FF30F1E781
:1056500010B582B0054C0093246813460A460146F3
:105660002046FFF7BBFF02B010BD00BF4004002082
:105670002DE9F04FC1B00C46059115460A930690EE
:1056800002F018FB036813931846FFF739FFA3894C
:1056900012901E0603D52369002B01F031819FED86
:1056A000A67B00238DED107B0E93259324931593F9
:1056B0000793DFF890A230AB23939946A84698F859
:1056C00000304446EBB1252B02D11AE0252B03D044
:1056D00014F8013F002BF9D1C8EB04058DB1249BD0
:1056E000259AC9F8008001332A44072BC9F80450D1
:1056F0002592249300F3A68009F10809079B2B4407
:1057000007932378002B00F0A68000231A468DF81B
:105710006F301946089303934FF0FF3B637804F111
:1057200001085D4608F10108A3F12000582800F2A5
:105730003484DFE810F0A00332043204A8033204FA
:1057400032043204320432043204AF03BD033204A3
:105750005D00E20032040901100110011001100186
:105760001001100110011001100132043204320442
:10577000320432043204320432043204320420018E
:105780008602320486023204320432043204D40225
:1057900032043204E50232043204320432043204A8
:1057A0000F03320432043D03320432043204320463
:1057B0003204320432043204320432047E03910390
:1057C000860286028602990391033204320407049A
:1057D00032041204A3006400C2033204C903320479
:1057E000EA0332043204F20308980A934042089014
:1057F000039B43F00403039398F8003092E70A9860
:10580000AB46002104688DF86F10071D0398302304
:1058100078228B458DF870304FF000058DF871209F
:1058200040F00203C0F2D68320F0800343F002036D
:10583000039354EA05030A9700F0A2830F460D92E2
:105840003F48E6E223AA0599069803F071F848B9A3
:105850000DF1C00952E7259B23B10698059923AAAB
:1058600003F066F8059B9B8913F0400F079B18BF58
:105870004FF0FF33184641B0BDE8F08F0D93AB46B3
:10588000002A41F03382039A12F0200300F046828E
:105890000A9F073727F00703002703F10801BB45DC
:1058A0000A91D3E900458DF86F70C0F2628722F04B
:1058B0008003039354EA050300F0848330AEE208CA
:1058C00042EA4572E90804F007030D4614463033F6
:1058D00054EA050206F8013DF1D1039AD10740F1DF
:1058E0008F80302B00F08C803022731E06F8012C44
:1058F00030AAD21A09921E4685E098F800302A2B69
:1059000008F1010401F0E481A3F13000092898BFF7
:10591000002501F2868114F8013B05EB850500EBBB
:105920004505A3F130000928F5D945EAE575A046FB
:10593000FAE600BFAFF300800000000000000000A6
:1059400040A200080CA20008039B43F080030393CD
:1059500098F80030E6E6A3F1300000231C4618F862
:10596000013B04EB840400EB4404A3F1300009285C
:10597000F5D90894D8E60D93AB46002A41F0C481CE
:10598000039B43F010030393039B9C0640F1378570
:105990000A9F073727F00707D7E9002307F1080117
:1059A0000A9114461D46002A73F10003C0F2628575
:1059B000BBF1000F9DF86F70C0F23F85039B23F091
:1059C0008003039354EA050300F0E881002D08BF2B
:1059D0000A2CC0F0E88130AE204629460A22002376
:1059E00004F094F8303206F8012D204629460023B1
:1059F0000A2204F08BF804460D4654EA0503EBD165
:105A000030AB9B1B0993099B5B45B8BF5B46049376
:105A100000230F9317B1049B01330493039B13F0EE
:105A200002030B9302D0049B02330493039B13F0F5
:105A300084030C9340F0DB82089B049A9D1A002D8E
:105A400040F3D582102D2599249AA84F27DD14966E
:105A500048461024B946059E2F46069D04E0103F97
:105A6000102F00F1080016DD0132A04B24921031F6
:105A7000072A259180E81800F1DD23AA314628463F
:105A800002F056FF00287FF4EDAE103F102F25994D
:105A9000249A30A8E8DC149E3D464F4681460132E8
:105AA0006C18072A25942492C9F80070C9F804508C
:105AB00000F32D849DF86F7009F1080977B1249BDC
:105AC000013301340DF16F010122072B259424933A
:105AD00089E8060000F3A58309F108090B9B6BB167
